:020000040000fa
:080000000002040000000000f2
:020000040000fa
:04000800a80200004a
:020000040000fa
:04000c00a802000046
:020000040000fa
:04001000a802000042
:020000040000fa
:04001400a80200003e
:020000040000fa
:04001800a80200003a
:020000040000fa
:04001c00a802000036
:020000040000fa
:04002000a802000032
:020000040000fa
:04002400a80200002e
:020000040000fa
:04002800a80200002a
:020000040000fa
:04002c00a802000026
:020000040000fa
:04003000a802000022
:020000040000fa
:0400340000130000b5
:020000040000fa
:04003800a80200001a
:020000040000fa
:04003c00a802000016
:020000040000fa
:04004000a802000012
:020000040000fa
:04004400a80200000e
:020000040000fa
:04004800a80200000a
:020000040000fa
:04004c00a802000006
:020000040000fa
:04005000a802000002
:020000040000fa
:04005400f4100000a4
:020000040000fa
:04005800a8020000fa
:020000040000fa
:04005c00a8020000f6
:020000040000fa
:04006000a8020000f2
:020000040000fa
:04006400a8020000ee
:020000040000fa
:04006800a8020000ea
:020000040000fa
:04006c00a8020000e6
:020000040000fa
:04007000a8020000e2
:020000040000fa
:04007400a8020000de
:020000040000fa
:04007800a8020000da
:020000040000fa
:04007c00a8020000d6
:020000040000fa
:04008000a8020000d2
:020000040000fa
:04008400a8020000ce
:020000040000fa
:04008800a8020000ca
:020000040000fa
:04008c00a8020000c6
:020000040000fa
:04009000a8020000c2
:020000040000fa
:04009400a8020000be
:020000040000fa
:04009800a8020000ba
:020000040000fa
:04009c00a8020000b6
:020000040000fa
:0400a0002411000027
:020000040000fa
:0400a400a8020000ae
:020000040000fa
:0400a800a8020000aa
:020000040000fa
:0400ac00a8020000a6
:020000040000fa
:0400b000a8020000a2
:020000040000fa
:0400b400a80200009e
:020000040000fa
:0400b800a80200009a
:020000040000fa
:0400bc00a802000096
:020000040000fa
:0400c000a802000092
:020000040000fa
:0400c400a80200008e
:020000040000fa
:0400c800a80200008a
:020000040000fa
:0400cc00a802000086
:020000040000fa
:0400d000a802000082
:020000040000fa
:0400d400a80200007e
:020000040000fa
:0400d800a80200007a
:020000040000fa
:0400dc00a802000076
:020000040000fa
:0400e000a802000072
:020000040000fa
:0400e400a80200006e
:020000040000fa
:0400e800a80200006a
:020000040000fa
:0400ec00a802000066
:020000040000fa
:0400f000a802000062
:020000040000fa
:0400f400a80200005e
:020000040000fa
:0400f800a80200005a
:020000040000fa
:0400fc00a802000056
:020000040000fa
:04010000a802000051
:020000040000fa
:04010400a80200004d
:020000040000fa
:04010800a802000049
:020000040000fa
:04010c00a802000045
:020000040000fa
:04011000a802000041
:020000040000fa
:04011400a80200003d
:020000040000fa
:04011800a802000039
:020000040000fa
:04011c00a802000035
:020000040000fa
:04012000a802000031
:020000040000fa
:04012400a80200002d
:020000040000fa
:04012800a802000029
:020000040000fa
:04012c00a802000025
:020000040000fa
:04013000a802000021
:020000040000fa
:04013400a80200001d
:020000040000fa
:04013800a802000019
:020000040000fa
:04013c00a802000015
:020000040000fa
:04014000a802000011
:020000040000fa
:04014400a80200000d
:020000040000fa
:04014800a802000009
:020000040000fa
:04014c00a802000005
:020000040000fa
:04015000a802000001
:020000040000fa
:04015400a8020000fd
:020000040000fa
:04015800a8020000f9
:020000040000fa
:04015c00a8020000f5
:020000040000fa
:04016000a8020000f1
:020000040000fa
:04016400a8020000ed
:020000040000fa
:04016800a8020000e9
:020000040000fa
:04016c00a8020000e5
:020000040000fa
:04017000601100001a
:020000040000fa
:04017400a8020000dd
:020000040000fa
:04017800a8020000d9
:020000040000fa
:04017c00a8020000d5
:020000040000fa
:04018000a8020000d1
:020000040000fa
:04018400a8020000cd
:020000040000fa
:0401880090110000d2
:020000040000fa
:04018c00a8020000c5
:020000040000fa
:04019000a8020000c1
:020000040000fa
:04019400a8020000bd
:020000040000fa
:04019800a8020000b9
:020000040000fa
:04019c00a8020000b5
:020000040000fa
:04020800a802000048
:020000040000fa
:04020c00a802000044
:020000040000fa
:04021000a802000040
:020000040000fa
:04021400a80200003c
:020000040000fa
:04021800a802000038
:020000040000fa
:04021c00a802000034
:020000040000fa
:04022000a802000030
:020000040000fa
:04022400a80200002c
:020000040000fa
:04022800a802000028
:020000040000fa
:04022c00a802000024
:020000040000fa
:04023000a802000020
:020000040000fa
:04023400a80200001c
:020000040000fa
:04023800a802000018
:020000040000fa
:04023c00a802000014
:020000040000fa
:04024000a802000010
:020000040000fa
:04024400a80200000c
:020000040000fa
:04024800a802000008
:020000040000fa
:04024c00a802000004
:020000040000fa
:04025000a802000000
:020000040000fa
:04025400a8020000fc
:020000040000fa
:04025800a8020000f8
:020000040000fa
:04025c00a8020000f4
:020000040000fa
:04026000a8020000f0
:020000040000fa
:04026400a8020000ec
:020000040000fa
:04026800a8020000e8
:020000040000fa
:04026c00a8020000e4
:020000040000fa
:04027000a8020000e0
:020000040000fa
:04027400a8020000dc
:020000040000fa
:04027800a8020000d8
:020000040000fa
:04027c00a8020000d4
:020000040000fa
:04028000a8020000d0
:020000040000fa
:04028400a8020000cc
:020000040000fa
:04028800a8020000c8
:020000040000fa
:04028c00a8020000c4
:020000040000fa
:04029000a8020000c0
:020000040000fa
:04029400a8020000bc
:020000040000fa
:04029800a8020000b8
:020000040000fa
:04029c00a8020000b4
:020000040000fa
:0402a000a8020000b0
:020000040000fa
:0402a400a8020000ac
:020000040000fa
:0402a800a8020000a8
:020000040000fa
:0402ac00a8020000a4
:020000040000fa
:0402b000a8020000a0
:020000040000fa
:0402b400a80200009c
:020000040000fa
:0402b800a802000098
:020000040000fa
:0402bc00a802000094
:020000040000fa
:0402c000a802000090
:020000040000fa
:0402c400a80200008c
:020000040000fa
:0402c800a802000088
:020000040000fa
:0402cc00a802000084
:020000040000fa
:0402d000a802000080
:020000040000fa
:0402d400a80200007c
:020000040000fa
:0402d800a802000078
:020000040000fa
:0402dc00a802000074
:020000040000fa
:0402e000a802000070
:020000040000fa
:0402e400a80200006c
:020000040000fa
:0402e800a802000068
:020000040000fa
:0402ec00a802000064
:020000040000fa
:0402f000a802000060
:020000040000fa
:0402f400a80200005c
:020000040000fa
:0402f800a802000058
:020000040000fa
:0402fc00a802000054
:020000040000fa
:04030000a80200004f
:020000040000fa
:04030400a80200004b
:020000040000fa
:04030800a802000047
:020000040000fa
:04030c00a802000043
:020000040000fa
:04031000a80200003f
:020000040000fa
:04031400a80200003b
:020000040000fa
:04031800a802000037
:020000040000fa
:04031c00a802000033
:020000040000fa
:04032000a80200002f
:020000040000fa
:04032400a80200002b
:020000040000fa
:04032800a802000027
:020000040000fa
:04032c00a802000023
:020000040000fa
:04033000a80200001f
:020000040000fa
:04033400a80200001b
:020000040000fa
:04033800a802000017
:020000040000fa
:04033c00a802000013
:020000040000fa
:04034000a80200000f
:020000040000fa
:04034400a80200000b
:020000040000fa
:04034800a802000007
:020000040000fa
:04034c00a802000003
:020000040000fa
:04035000a8020000ff
:020000040000fa
:04035400a8020000fb
:020000040000fa
:04035800a8020000f7
:020000040000fa
:04035c00a8020000f3
:020000040000fa
:04036000a8020000ef
:020000040000fa
:04036400a8020000eb
:020000040000fa
:04036800a8020000e7
:020000040000fa
:04036c00a8020000e3
:020000040000fa
:04037000a8020000df
:020000040000fa
:04037400a8020000db
:020000040000fa
:04037800a8020000d7
:020000040000fa
:04037c00a8020000d3
:020000040000fa
:04038000a8020000cf
:020000040000fa
:04038400a8020000cb
:020000040000fa
:04038800a8020000c7
:020000040000fa
:04038c00a8020000c3
:020000040000fa
:04039000a8020000bf
:020000040000fa
:04039400a8020000bb
:020000040000fa
:04039800a8020000b7
:020000040000fa
:04039c00a8020000b3
:020000040000fa
:100400008f8a20000e7f24000e018800000000006b
:10041000000020000000e000020032000001200087
:10042000200288000c00070040312100010020005c
:1004300011000700000020000000e0000200320070
:10044000000002000000000068120200000000002e
:100450000040da000000fe004440a900c000200077
:100460000000e0000300320000002000a00188002e
:100470004440a80000000600910188008000780038
:100480000000eb0015003700e280400032a0b4000d
:100490009101ba00e280400032a0b4009102ba009b
:1004a000e280400032a0b4000002eb00472bde00e7
:1004b000f507b200602ce10004003a000059eb009f
:1004c0008301e900fdff3e00040037006128e100e0
:1004d000010032000082eb000b00070011c3ba00dc
:1004e0001101ba000604e00003003a000200e00037
:1004f000e5ff3a0000000600f607b200960188000a
:1005000082007800f5ff37003159ba008301e90015
:100510000c0032002159ba008301e90008003200c2
:100520000400e00003003a00e280400032a0b40082
:10053000f5ff370011d9ba008301e900faff3a004c
:100540008100e800e180400032a0b4000000060015
:100550000040da000000fe0000118000660060002c
:10056000e60f500002003a00301180000000060043
:1005700030118000f00fb2000000060080118000f2
:1005800066006000e60f500002003a00b0118000e3
:1005900000000600b0118000f00fb200000006005d
:1005a0008012800066006000e60f500002003a00f2
:1005b000b012800000000600b0128000f00fb20000
:1005c000000006008015800066006000e60f500005
:1005d00002003a00b015800000000600b01580004f
:1005e000f00fb2000000060001118000e6806000fc
:1005f000e68f500001003200f00fb2002011880099
:100600000000060081118000e6806000e68f500047
:1006100001003200f00fb200a011880000000600b7
:10062000839f68000100e00002003d0060001000b0
:10063000e08018000300e00002003d0060011100ae
:10064000e0811900140007004f00e00002003b00a9
:1006500060001000e080180000000600811f780094
:100660000100e00002003d0060001000e080180082
:100670000300e00002003d0060011100e08119006c
:10068000150007004f00e00002003b006000100072
:10069000e0801800000006006022b800060220007a
:1006a0000000d0008180d2000482d2008582d20076
:1006b0000000a0000202520083825a0003003100b1
:1006c0000202420083824a000000a1000603e90002
:1006d000f3ff3a0000000600efff07000400be0031
:1006e000000006000900370030427800b141780070
:1006f000834f520004003200100020000600310039
:100700000080eb00000006000201e9000200e000aa
:0c071000f5ff3a000000eb0000000600be
:020000040000fa
:10071c002447000050000000474700004100000043
:08072c00524d000043000000e3
:020000040000fa
:100734000400fa00004f78001107980040c2b3008b
:100744009e40780080cf500009003a000068ef0016
:1007540000c8bf008080fb001e01900081004100a2
:100764009e4878000040e80000e8b7001d0037000c
:100774001e407800ed4f500013003a0000c8bf003f
:100784008080fb001e01900081004100d2c0b300b4
:10079400824878000040e80000e8b70000c8bf00c5
:1007a4008080fb001e01900081004100a2c0b300c4
:1007b400824878000040e80000e8b7001e0090007e
:1007c400710007000700370000c8bf008080fb00ed
:1007d4001e019000810041009e4878000040e8001e
:1007e40000e8b7000080fa00000006000800fa00e4
:1007f400300798000040eb00004f78000040eb0009
:100804001047980010c0b300104798001a00370032
:100814001e4090000080fb00be009000008040005d
:10082400904078001e40780000c06800004f7800b7
:1008340000c8bf009e40900080cf500002003900e5
:1008440010cfb3004e0037001e4090000080fb0024
:10085400be0090000080400010407800ff4f500020
:1008640002003c0020cfb300450037001e4090003a
:100874000040e800104798001e4090000080fb00f4
:10088400be0090000080400090407800a0c2b300f9
:1008940080cf5000deff3a001e4090000080fb0035
:1008a4000000e800be009000008040001040780086
:1008b400ab000700204798002e409000e14f400015
:1008c40002003a00e0cfb3002d0037001e40900034
:1008d4000080fb000080e800be0090000080400023
:1008e400104078009e000700304798003e4090007a
:1008f400e14f400002003a00d0cfb300200037009f
:100904002e4090000080fb004400dd008040780011
:100914003e40900000c07000404798004e40900058
:100924009e40780080cf50000200320010c0b30017
:10093400130037001e4090000080fb00630040005d
:10094400be0090000080400010407800ed4f500041
:100954000200320020c0b30009003700320020003a
:10096400e13828003e0090005dff07000000e00031
:100974000200320030c0b300010037000040eb0039
:100984000080fa00000006000200fa00000f780060
:100994001e00780095ff07000004e00003003a0001
:1009a400904080000020a0009040880060c0b30008
:1009b40001e8b7009e007800638040003200200008
:1009c4002139280046ff07000000e00020003a001b
:1009d4001e0078008c0007000004e00043003a0089
:1009e4001e0078002d0107000004e00041003a00d9
:1009f4001e0078006c0107000004e0003f003a008c
:100a04001e0078000a0307000004e0003d003a00dd
:100a14001e007800260307000004e0003b003a00b3
:100a24001e007800570307000004e00039003a0074
:100a34001e007800600207000004e00037003a005e
:100a44000bc8bf000004a0000be8b7004200370049
:100a54009e00780063804000320020006139280045
:100a64001fff07000000e0003b003a001e00780072
:100a7400650007000004e0002a003a001e00780028
:100a8400510307000004e00028003a001e0078002b
:100a9400020107000004e00026003a001e0078006e
:100aa400410107000004e00024003a001e00780021
:100ab4006e0307000004e00022003a001e007800e4
:100ac400850307000004e00020003a001e007800bf
:100ad400bc0007000004e0001e003a000bc8bf0081
:100ae4000004a0000be8b7001b0037000000000062
:100af4001900370000000000170037000000000054
:100b0400150037000000000013003700000000004b
:100b140011003700000000000f0037000000000043
:100b24000d003700000000000b003700000000003b
:100b34000900370000000000070037000000000033
:100b4400050037000000000003003700000000002b
:100b540001003700000000000080fa0000000600d9
:100b64000400fa002047980000c0eb00004f780012
:100b7400ae409000f0c2b30080cf500008003400b3
:100b8400ae40900090c3b30080cf500004003c00fe
:100b9400ae40900000cdb30000cf400017003700f6
:100ba400ae40900000c4b30080cf50000800340071
:100bb400ae40900060c4b30080cf500004003c00fd
:100bc400ae40900090ccb30000cf40000b00370043
:100bd400ae40900000c6b30080cf50000700340040
:100be400ae40900060c6b30080cf500003003c00cc
:100bf400ae40900090cab30000cf40001e40780081
:100c04000080fa00000006000600fa0020079800a1
:100c140001c8bf000080fb00ae00900000804000cf
:100c240090407800c0c2b30080cf50000200320070
:100c340010c0b3006100370001c8bf000040e800e5
:100c440001e8b70001c8bf000080fb00ae009000bf
:100c5400008040006b030700418920008048780031
:100c640001c8bf000080fb000080e800ae009000d7
:100c74000080400063030700518920008048780009
:100c840001c8bf000080fb0064004000ae0090007b
:100c9400008040005b0307006189200080487800e1
:100ca4004089200010407800f74f50000a003e00b1
:100cb4005089200090407800b0c3b30080cf50002a
:100cc40005003e006089200090407800b0c3b30066
:100cd40080cf50000200360010c0b3003700370048
:100ce40001c8bf006640400001e8b70001c8bf006a
:100cf4000080fb00ae00900000804000904078002f
:100d0400c0c2b30080cf500002003a000040eb00a4
:100d14002a00370001c8bf000080fb00ae0090002d
:100d24000080400090407800e0c2b30080cf5000c3
:100d34000200320010c0b300200037000000eb00b6
:100d4400000f78001900370001c8bf000040e80018
:100d540001e8b70001c8bf000080fb00ae009000ae
:100d64000080400090407800c0c2b30080cf5000a3
:100d740002003a000040eb001000370001c8bf0039
:100d84000080fb00ae0090000080400004030700d8
:100d9400204798002e409000e94f50000200360092
:100da40010c0b300050037001e0fe8001e007800d5
:100db400e40f5000e4ff360010c0b3000080fa00d6
:100dc400000006000200fa00000f780001c8bf000e
:100dd4000040e80001e8b70001c8bf000080fb0044
:100de4001e00400007030700718920008048780036
:100df40001c8bf000080fb000080e8001e00400026
:100e040000030700818920008048780001c8bf00e2
:100e14000080fb00640040001e004000f90207004f
:100e2400918920008048780001c8bf0066404000d6
:100e340001e8b70070892000104078000004e00049
:100e4400130032007089200010407800ff4f5000da
:100e54000f003e0080892000104078000004e0006c
:100e64000b0032008089200010407800ec4f5000c5
:100e740007003e00908920009040780020c6b3000f
:100e840080cf500002003e000040eb00010037001c
:100e940010c0b3000080fa00000006000600fa004b
:100ea400200798002e00900082000700008fbe00eb
:100eb40002c8bf000004e0000200320000c0eb00e2
:100ec4003700370001c8bf0000c0e80001e8b700e0
:100ed40001c8bf000080fb000000e900ae009000e4
:100ee4000080400090407800e0c4b30080cf500000
:100ef40005003a001e01be00f24488000345880044
:100f04000040eb002600370001c8bf000080fb0052
:100f14000000e900ae00900000804000904078009e
:100f240030c5b30080cf500007003a001e00be0059
:100f340060001000e0801800f0448800014588003b
:100f44000040eb001600370001c8bf000080fb0022
:100f54000000e900ae00900000804000904078005e
:100f6400c0c2b30080cf50000c003a001e00be0087
:100f7400e00f5000e08f580008003a0001c8bf009d
:100f84000040e90001e8b7006000b800f0448800c0
:100f9400014588000040eb000100370000c0eb0071
:100fa4000080fa00000006000600fa0020079800fe
:100fb4002e0090003f000700008fbe0002c8bf0053
:100fc4000004e0000200320000c0eb0037003700ec
:100fd40001c8bf0000c0e80001e8b70001c8bf00b5
:100fe4000080fb000000e900ae009000008040009b
:100ff4009040780050c4b30080cf500005003a0000
:101004001e01be00d2448800e34488000040eb0087
:101014002600370001c8bf000080fb000000e90083
:10102400ae009000008040009040780070c5b3008e
:1010340080cf500007003a001e00be006000100080
:10104400e0801800d0448800e14488000040eb00b0
:101054001600370001c8bf000080fb000000e90053
:10106400ae0090000080400090407800c0c2b30001
:1010740080cf50000c003a001e00be00e00f50006c
:10108400e08f580008003a0001c8bf000040e900a2
:1010940001e8b7006000b800d0448800e14488004b
:1010a4000040eb000100370000c0eb000080fa00b4
:1010b400000006000a00fa00889fbe00400798005e
:1010c4006000b800100798002107980010c0b30012
:1010d40002e8b70001c8bf000080fb00ce0090000a
:1010e4000080400090407800c0c2b30080cf500020
:1010f4000400320010c0b30002e8b7006000b8007a
:101104009a00370001c8bf000040e80001e8b700ba
:1011140001c8bf000080fb00ce00900000804000aa
:1011240090407800c0c2b30080cf500003003a0062
:101134000268ef006000b8008c0037000000eb008c
:10114400000f78002500370001c8bf008080fb0035
:101154004e019000810041000040e80001e8b70022
:10116400010078000e020700604798006e4090006e
:10117400fe4f50001e0032006e409000e94f5000b8
:10118400020036006000b800780037002e0090009e
:101194006a00b900000178001e0090006000b900e8
:1011a40000007800000141009e009000a000200093
:1011b4000008b80001014100820078006e419000ef
:1011c4000281fb008001eb000000410081804900a6
:1011d40010079800210798001e0fe8001e007800f1
:1011e400e50f5000d8ff34006000b8005f003700fe
:1011f400000000001e009000ae0090004206200097
:101204000300200023fd0700c20320000289b90067
:10121400020178006002b9008401780003014100f2
:10122400c30320000304b8000901410082047800cc
:101234001e009000ae009000420620000300200033
:1012440024fd07000800400089804800100798002a
:10125400210798000000eb00000f780026003700fb
:1012640001c8bf000080fb00ce0090000080400059
:10127400cb010700604798006e409000e94f500092
:1012840013003e002e0090006a00b90000017800af
:101294001e0090006000b9000000780000014100c9
:1012a4009e009000a00020000008b8000101410049
:1012b400820078006e4190000281fb008001eb0007
:1012c4000000410081804900100798002107980020
:1012d4006e409000fc4f50001c0032006e409000a5
:1012e400fa4f50001900320001c8bf000040e80066
:1012f40001e8b7001e0fe8001e007800e30f50005d
:10130400d7ff3400110037002e0090006a00b900a6
:10131400000178001e0090006000b9000000780011
:10132400000141009e009000a00020000008b800c9
:1013340001014100820078001007980021079800fd
:1013440010079800210798001e0fe8001e0078007f
:10135400e30f5000ecff34004e009000060007003d
:101364000268ef001e009000ae0090004f04be0023
:101374000080fa00000006000200fa00000f780066
:101384000300370001c8bf000040e80001e8b700cf
:1013940001c8bf000080fb001e00400090407800a0
:1013a400c0c2b30080cf5000f6ff3a000040eb000b
:1013b4000080fa00000006000200fa00000f780026
:1013c40001c8bf000040e80001e8b70001c8bf0041
:1013d4000080fb001e0040008000780010c0b300b5
:1013e40008000700803eb0000180b000104588006e
:1013f400214588001e007800dfff07000080fa0006
:10140400000006000e00fa00204f980061079800c3
:101414006000b800008fbe000040eb004047980019
:101424000040eb00504798000000eb0030079800a4
:10143400420037006e00900059010700004f9800e9
:101444006e0090000000e800600798000e489000cd
:10145400e94f500013003e001e0090006a00b900de
:10146400000178001e0078006000b90000007800d8
:10147400000141009e007800a00020000008b80090
:1014840001014100820078000e4990000281fb00b6
:101494008001eb00021f40000397480010c0b30016
:1014a400504798008e48900000c3b30000c0680005
:1014b400104f98009e489000e0c2b30080cf5000c7
:1014c400210032009e489000c0c2b30080cf50007b
:1014d4001d0032001e489000ed4f50001a003200eb
:1014e4009e489000d0c2b30080cf50000b003a0059
:1014f4004e4090000004e00003003a005e4090007b
:101504000004e000020032006000b800460037002a
:1015140010c0b30040479800050037000e48900003
:10152400e94f5000020036006000b8003e0037006a
:101534003e0090000000e800300798003e00900054
:10154400eb0f5000bbff340010c0b30050479800ad
:101554002e4890000004e0002b0032000000eb0055
:1015640030079800230037006e0090000c0107003c
:10157400004f98006e0090000000e800600798009b
:101584000e489000e94f5000020036000040eb0086
:10159400504798001e0090006a00b90000017800ce
:1015a4001e0078006000b9000000780000014100ce
:1015b4009e007800a00020000008b800010141004e
:1015c400820078000e4990008281fb005e41900009
:1015d4000281fb000299b90002017800cf91de007c
:1015e400021f4000039748003e0090000000e800fe
:1015f400300798002e4890008080fb003e00900049
:10160400808f5000d8ff3c004e4090000004e00062
:10161400040032001e00be0060001000e0801800cc
:10162400010037001e00be000080fa000000060022
:101634000400fa001007980001c8bf000040e80049
:1016440001e8b70001c8bf000080fb009e009000c5
:1016540000804000d2000700004f78001e40780050
:10166400e94f50000200360000c0eb000e003700c6
:1016740001c8bf000040e80001e8b70001c8bf008e
:101684000080fb009e0090000080400090407800a5
:10169400c0c2b30080cf50000200320000c0eb0093
:1016a400010037000040eb000080fa000000060053
:1016b4000400fa001007980001c8bf000040e800c9
:1016c40001e8b70001c8bf000080fb009e00900045
:1016d40000804000cb000700004f780030c6b30004
:1016e4009e40780080cf50000e00360001c8bf0035
:1016f4000080fb009e00900000804000a8000700ce
:10170400004f78001e407800e94f50000200360078
:1017140000c0eb001900370001c8bf000040e90019
:1017240001e8b70001c8bf0000c0e80001e8b70045
:1017340001c8bf000080fb009e00900000804000b4
:1017440090407800c0c2b30080cf50000200320045
:1017540000c0eb00090037001e407800e94f50003c
:101764000200360090c0b300004f78001e4178009c
:1017740041802000824878000040eb000080fa009d
:10178400000006000200fa00000f780001c8bf0044
:101794000040e80001e8b70001c8bf000080fb007a
:1017a4001e0040008000780010c0b30015ff070041
:1017b40000007800304088001e007800eefe07002c
:1017c4000080fa00000006000200fa00000f780012
:1017d40001c8bf0000c0e80001e8b7000368ef00db
:1017e40001c8bf000080fb000080e9001e0040002b
:1017f40090407800c0c2b30080cf50000200320095
:1018040000c0eb001700370001c8bf000080fb00d8
:101814000000e9001e0040009040780060c5b3005d
:1018240080cf500002003a000040eb000d0037006a
:1018340001c8bf000080fb000000e9001e0040005a
:101844009040780010c4b30080cf500004003a00e8
:1018540010c0b30003e8b7000040eb0001003700fc
:1018640000c0eb000080fa00000006000200fa004d
:10187400000f780001c8bf000040e80001e8b7008d
:1018840001c8bf000080fb001e00400080007800fb
:1018940010c0b300dbfe0700000078004040880061
:1018a4001e007800b4fe0700404080006d00b900bf
:1018b40000007800e3004000700020000001780080
:1018c400110009008280d800304588000040eb00f8
:1018d4000080fa00000006000200fa00000f780001
:1018e40001c8bf000040e80001e8b70001c8bf001c
:1018f4000080fb001e0040008000780010c0b30090
:10190400c0fe0700420120000300200043fb070043
:10191400004078000ae8b7001e00780096fe070031
:101924000080fa00000006000400fa001007980086
:101934001e00900010407800004f7800f0c2b30001
:101944009e40780080cf50000700360090c3b3005b
:101954009e40780080cf500003003e0000cdb300cd
:101964001e4040000c00370000c4b3009e407800c5
:1019740080cf50000700360060c4b3009e4078005a
:1019840080cf500003003e0090ccb3001e404000c6
:101994000100370000c0eb000080fa0000000600e0
:1019a4000200fa00000f78001e00780090407800d2
:1019b40000c3b30000c068000080fa000000060005
:1019c4000200fa00004f78001e407800e94f5000f2
:1019d40003003e0001c3b3001ec0400007003700ef
:1019e4001e407800ef4f500003003e0071c3b30067
:1019f4001ec0400001003700f0c3b3000080fa00ad
:101a0400000006000400fa00100798001e00900071
:101a1400e3ff0700004f78001e407800e94f5000b4
:101a24000200360000c0eb00110037001e009000d9
:101a34000000e800100798001e009000d8ff07007f
:101a4400104798001e409000e94f500002003600f5
:101a540000c0eb00060037001e4078006a00b900a1
:101a640000007800804078001e40900000c04000d4
:101a74000080fa00000006000600fa002007980023
:101a84002e009000dfff07000080fb00000f7800ad
:101a9400f00f20009e007800808f500002003a0072
:101aa4000080eb00110037002e0090000080e80059
:101ab400200798002e009000b9ff07000080fb006b
:101ac400100798001e009000e90f50000200360035
:101ad4000080eb00050037001e0078006a00b900a2
:101ae400800078001e009000008040000080fa0012
:101af400000006000400fa00100798001e00900081
:101b040089ff0700004f78001e407800ef4f500017
:101b1400020036000080eb00100037001e00900029
:101b24000000e800100798001e0090007eff0700e8
:101b3400104798001e409000ef4f500002003600fe
:101b44000080eb00050037001e4090008080fb0001
:101b54001e80fb004400dd00008040000080fa008d
:101b6400000006000400fa00000f780021479800e6
:101b74002e4090008080fb00a0002000000178002f
:101b8400110009008280d8008040780000c3b300af
:101b940000c07000804078001e0078000148780082
:101ba4001e0fe8002e4090008080fb00a000200063
:101bb40000017800110009008280d8008000fd0037
:101bc4008040780000c3b30000c0700080407800fb
:101bd4001e007800014878000080fa00000006002a
:101be4001000fa004007980051079800424f9800ef
:101bf400534f980074079800fe009000010f78007e
:101c04004e4890000000fb000000e9001e0f400059
:101c14004e009000de009000e00f5000e08f58006e
:101c240009003d004e009000de00900060001000ae
:101c3400e0801800400798005107980010c0b300d6
:101c440020479800020037000040eb00204798002e
:101c54004e4890000000fb00200798001d0037004c
:101c64004e009000de009000a2002000030020003f
:101c740079fa0700604798004e009000de0090005b
:101c8400a20020000300200064fa07004007980027
:101c9400510798006e4090000004e00004003200f8
:101ca4002e0090000040780000c0e9003047980002
:101cb4006e4090000043b000804078001e00780021
:101cc400014878001e0fe9002e0090000000e90092
:101cd400200798002e0090000000e000e0ff3c0088
:101ce4005e4890000004e0001d003a00fe009000f1
:101cf400010f78000000eb00200798001000370067
:101d04001e0078009040780061479800ee409000f3
:101d140000c3b30080cf500010003a0000c2b300eb
:101d2400604798001e007800ee409000014878005b
:101d34001e0fe8002e0090000000e8002007980025
:101d44004e4890000000fb008000e9002e00900047
:101d5400808f5000eaff3c000100370000000000c3
:101d64002e4090000004e000100032003e4090003d
:101d7400ef4f50000d003c005e4890000004e0006e
:101d840003003200fe009000010f780004003700c9
:101d94003e4090000000fb00fe009000008f4000d9
:101da4001e007800d1c2b300014878000040eb0067
:101db4000080fa00000006000600fa0020479800a0
:101dc40021079800ae009000010f7800ae4090000b
:101dd40030c6b30080cf5000080036001e007800e3
:101de400f1c3b300014878001e0fe8001e0078001c
:101df400f1c3b30001487800180037002e4090006a
:101e04008080fb00a0002000000178001100090080
:101e14008280d800004078000043b0008040780001
:101e24001e007800014878001e0fe8002e40900044
:101e34008080fb00a0002000000178001100090050
:101e44008280d8008000fd00004078000043b0008c
:101e5400804078001e007800014878000080fa0075
:101e6400000006000400fa00004f780011079800f3
:101e74009e80fb004006200000017800110009004c
:101e84008280d800004078000043b0008040780091
:101e94001e009000014878001e0090000000e80039
:101ea400100798009e80fb00400620000001780087
:101eb400110009008280d8008000fd00004f7800e6
:101ec4009e80fb00a00020000001780011000900a2
:101ed4008280d800004078000043b0008040780041
:101ee4001e009000014878001e0090000000e800e9
:101ef400100798009e80fb00a000200000017800dd
:101f0400110009008280d8008000fd0000407800a4
:101f14000043b000804078001e0090000148780023
:101f24001e0090000000e800100798001e009000ba
:101f340001c2b300014878000080fa0000000600e6
:101f44000600fa0020479800210798000040eb00a3
:101f5400004f7800ae40900030c6b30080cf5000f0
:101f6400170036002e4090008080fb0040062000c1
:101f740000017800110009008280d8000040780038
:101f84000043b000804078002e00900001487800a3
:101f94002e0090000000e800200798002e409000da
:101fa4008080fb0040062000000178001100090039
:101fb4008280d8008000fd00204798001e4fe80072
:101fc4002e409000e94f500003003e001e40780070
:101fd4000004e000170032002e4090008080fb00d7
:101fe400a000200000017800110009008280d800c0
:101ff400004078000043b000804078002e0090003c
:10200400014878002e0090000000e80020079800a6
:102014002e4090008080fb00a0002000000178008a
:10202400110009008280d8008000fd00204798003c
:102034001e4fe8002e4090000043b000804078001e
:102044002e009000014878001e4fe8001e407800e2
:102054000080fa00000006000200fa00004f780039
:1020640000000000111180000020200000806000aa
:102074000000e000fbff3a001e00fb002011880076
:102084000080fa00000006000200fa0000000000d0
:102094002104800000802000008060000000e00037
:1020a400fbff320030118000004f78008560a900ea
:1020b4001e4078000080fa00000006000200fa00ca
:1020c400004f7800000000009111800000202000e3
:1020d400008060000000e000fbff3a001e00fb00ef
:1020e400a01188000080fa00000006000200fa0037
:1020f4000000000031048000000024000080600023
:102104000000e000fbff3200b0118000004f7800b7
:1021140087c0a9001e4078000080fa000000060075
:102124000200fa00004f78000000000091128000c5
:1021340000202000008060000000e000fbff3a0067
:102144001e00fb00a01288000080fa0000000600b8
:102154000200fa00000000007004800064006000c7
:102164000000e000fcff3200b0128000004f780055
:102174008e40a9001e4078000080fa00000006008e
:102184000200fa00004f7800000000009115800062
:1021940000202000008060000000e000fbff3a0007
:1021a4001e00fb00a01588000080fa000000060055
:1021b4000200fa00000000007104800000102000fa
:1021c400008060000000e000fbff3200b0158000da
:1021d400004f78008f00a9001e4078000080fa00ac
:1021e400000006003600f800809fbe00829fbe00fb
:1021f400849fbe00869fbe003400f80000002000cb
:10220400a00188000200fa000000eb00000f780033
:10221400d0f80700000f78001e007800f8f80700d7
:102224008560a9000080fa003400f9004f03be0065
:102234004f02be004f01be004f00be003600f90041
:10224400004006003600f800809fbe00829fbe005a
:10225400849fbe00869fbe003400f800000020006a
:10226400a00188000000fa00c3f8070000407800cd
:1022740010e8b70011c8bf00e14f500003003a0056
:1022840010c8bf000000fb00d6f807009040800093
:102294000010a0009040880087c0a9000080fa00c8
:1022a4003400f9004f03be004f02be004f01be00d0
:1022b4004f00be003600f900004006003600f8006a
:1022c400809fbe00829fbe00849fbe00869fbe008a
:1022d4003400f80000002000a00188000200fa0089
:1022e4000000eb00000f7800acf80700000f780046
:1022f4001e007800bbf807008e40a9000080fa0099
:102304003400f9004f03be004f02be004f01be006f
:102314004f00be003600f900004006003600f80009
:10232400809fbe00829fbe00849fbe00869fbe0029
:102334003400f80000002000a00188000200fa0028
:102344000000eb00000f78009df80700000f7800f4
:102354001e007800a3f807008f00a9000080fa008f
:102364003400f9004f03be004f02be004f01be000f
:102374004f00be003600f900004006000000fa00dd
:102384002135800000fc2f0000806000f000b300c5
:1023940020358800f136800000fc2f0000806000aa
:1023a4003000b300f03688003135800000fc2f0087
:1023b40080806000600220000100700030358800d9
:1023c4001136800000fc2f00008060005000b30034
:1023d4001036880011358000f00f2c0080806000da
:1023e4000030200001007000103588002136800084
:1023f40000fc2f0000806000c001b300203688007c
:10240400b135800000fc2f00008060004001b30063
:10241400b0358800c1368000f00f2c008080600049
:1024240000e0210001007000c0368800f0002000a8
:10243400401188002062a80021e2a80023e2a8003d
:1024440023a2a9002342a800001a2000c01188007a
:102454003062a80031e2a80033e2a80033a2a90048
:102464003342a800f0002000c01288005062a80087
:1024740051e2a80053e2a80053a2a9005342a800c5
:102484009560a80097c0a8008560a90087c0a9002e
:102494008e40a9008f00a9000080fa000000060009
:1024a4000200fa000000eb00000f7800f6fe0700bf
:1024b4000000fb00000f78001e0078000040780048
:1024c400e5fe07000080fa00000006001200fa0092
:1024d4000040eb00004f780040a7a9000080eb000b
:1024e40060198800f03f2f00401688005a0007004a
:1024f400a2ff0700010037000000000090408000a8
:10250400620060000000e0000700320010c8bf0055
:102514004181200086f8070091408000d0ff2f0001
:10252400008060009040880090408000640060005b
:102534000000e000f0ff3200100020000100200045
:10254400d0448800e1448800d0448000e144800005
:102554000e01e800020278008041eb0092c0b30053
:102564009ffd0700d0c0b300bbfe0700a0c0b300ae
:10257400b9fe07000040eb00004f7800050037006b
:102584001e80fb000000470010409000b2fe0700d0
:102594001e4fe8001e407800ef4f5000f8ff360051
:1025a40091408000b0ff2f000080600090408800c0
:1025b400d2ff37000000fa00007d200010088800d8
:1025c4000421a900200880000040a0000050a100c0
:1025d400200888002005800000c0a00000d0a100d1
:1025e40000e0a000200588008460a9009460a80091
:1025f40005e1a8000080fa00000006003400f8009d
:10260400881f780008002000a80188004f04780083
:102614000000fa008460a9000080fa003400f90088
:04262400004006006c
:020000040000fa
:102628000c08000004000000000000001008000072
:1026380004000000000000001408000094000000de
:1026480000000000000800000c000000000000006e
:042658003c138000af
:020000040000fa
:10265c000000fa00f022a900e822a900f222a90049
:0c266c00ea22a9000080fa00000006002d
:020000040000fa
:04267800000000005e
:020000040000fa
:020000040005f5
:0457f400ffff0000b3
:020000040000fa
:020000040005f5
:0457f8006d0300003d
:020000040000fa
:020000040005f5
:0457fc007f3f0000eb
:00000001FF
