:020000040000fa
:080000000002040000000000f2
:020000040000fa
:0400080010030000e1
:020000040000fa
:04000c0010030000dd
:020000040000fa
:0400100010030000d9
:020000040000fa
:0400140010030000d5
:020000040000fa
:0400180010030000d1
:020000040000fa
:04001c0010030000cd
:020000040000fa
:0400200010030000c9
:020000040000fa
:0400240010030000c5
:020000040000fa
:0400280010030000c1
:020000040000fa
:04002c0010030000bd
:020000040000fa
:0400300010030000b9
:020000040000fa
:0400340010030000b5
:020000040000fa
:0400380010030000b1
:020000040000fa
:04003c0010030000ad
:020000040000fa
:0400400010030000a9
:020000040000fa
:0400440010030000a5
:020000040000fa
:0400480010030000a1
:020000040000fa
:04004c00100300009d
:020000040000fa
:040050001003000099
:020000040000fa
:040054001003000095
:020000040000fa
:040058001003000091
:020000040000fa
:04005c00100300008d
:020000040000fa
:040060001003000089
:020000040000fa
:040064001003000085
:020000040000fa
:040068001003000081
:020000040000fa
:04006c00100300007d
:020000040000fa
:040070001003000079
:020000040000fa
:040074001003000075
:020000040000fa
:040078001003000071
:020000040000fa
:04007c00100300006d
:020000040000fa
:040080001003000069
:020000040000fa
:040084001003000065
:020000040000fa
:040088001003000061
:020000040000fa
:04008c00100300005d
:020000040000fa
:040090001003000059
:020000040000fa
:040094001003000055
:020000040000fa
:040098001003000051
:020000040000fa
:04009c00100300004d
:020000040000fa
:0400a0001003000049
:020000040000fa
:0400a4001003000045
:020000040000fa
:0400a8001003000041
:020000040000fa
:0400ac00100300003d
:020000040000fa
:0400b0001003000039
:020000040000fa
:0400b4001003000035
:020000040000fa
:0400b8001003000031
:020000040000fa
:0400bc00100300002d
:020000040000fa
:0400c0001003000029
:020000040000fa
:0400c4001003000025
:020000040000fa
:0400c8001003000021
:020000040000fa
:0400cc00100300001d
:020000040000fa
:0400d0001003000019
:020000040000fa
:0400d4001003000015
:020000040000fa
:0400d8001003000011
:020000040000fa
:0400dc00100300000d
:020000040000fa
:0400e0001003000009
:020000040000fa
:0400e4001003000005
:020000040000fa
:0400e8001003000001
:020000040000fa
:0400ec0010030000fd
:020000040000fa
:0400f00010030000f9
:020000040000fa
:0400f40010030000f5
:020000040000fa
:0400f80010030000f1
:020000040000fa
:0400fc0010030000ed
:020000040000fa
:0401000010030000e8
:020000040000fa
:0401040010030000e4
:020000040000fa
:0401080010030000e0
:020000040000fa
:04010c0010030000dc
:020000040000fa
:0401100010030000d8
:020000040000fa
:0401140010030000d4
:020000040000fa
:0401180010030000d0
:020000040000fa
:04011c0010030000cc
:020000040000fa
:0401200010030000c8
:020000040000fa
:0401240010030000c4
:020000040000fa
:0401280010030000c0
:020000040000fa
:04012c0010030000bc
:020000040000fa
:0401300010030000b8
:020000040000fa
:0401340010030000b4
:020000040000fa
:0401380010030000b0
:020000040000fa
:04013c0010030000ac
:020000040000fa
:0401400010030000a8
:020000040000fa
:0401440010030000a4
:020000040000fa
:0401480010030000a0
:020000040000fa
:04014c00100300009c
:020000040000fa
:040150001003000098
:020000040000fa
:040154001003000094
:020000040000fa
:040158001003000090
:020000040000fa
:04015c00100300008c
:020000040000fa
:040160001003000088
:020000040000fa
:040164001003000084
:020000040000fa
:040168001003000080
:020000040000fa
:04016c00100300007c
:020000040000fa
:040170001003000078
:020000040000fa
:040174001003000074
:020000040000fa
:040178001003000070
:020000040000fa
:04017c00100300006c
:020000040000fa
:040180001003000068
:020000040000fa
:040184001003000064
:020000040000fa
:040188001003000060
:020000040000fa
:04018c00100300005c
:020000040000fa
:040190001003000058
:020000040000fa
:040194001003000054
:020000040000fa
:040198001003000050
:020000040000fa
:04019c00100300004c
:020000040000fa
:0401a0001003000048
:020000040000fa
:0401a4001003000044
:020000040000fa
:0401a8001003000040
:020000040000fa
:0401ac00100300003c
:020000040000fa
:0401b0001003000038
:020000040000fa
:0401b4001003000034
:020000040000fa
:0401b8001003000030
:020000040000fa
:0402080010030000df
:020000040000fa
:04020c0010030000db
:020000040000fa
:0402100010030000d7
:020000040000fa
:0402140010030000d3
:020000040000fa
:0402180010030000cf
:020000040000fa
:04021c0010030000cb
:020000040000fa
:0402200010030000c7
:020000040000fa
:0402240010030000c3
:020000040000fa
:0402280010030000bf
:020000040000fa
:04022c0010030000bb
:020000040000fa
:0402300010030000b7
:020000040000fa
:0402340010030000b3
:020000040000fa
:0402380010030000af
:020000040000fa
:04023c0010030000ab
:020000040000fa
:0402400010030000a7
:020000040000fa
:0402440010030000a3
:020000040000fa
:04024800100300009f
:020000040000fa
:04024c00100300009b
:020000040000fa
:040250001003000097
:020000040000fa
:040254001003000093
:020000040000fa
:04025800100300008f
:020000040000fa
:04025c00100300008b
:020000040000fa
:040260001003000087
:020000040000fa
:040264001003000083
:020000040000fa
:04026800100300007f
:020000040000fa
:04026c00100300007b
:020000040000fa
:040270001003000077
:020000040000fa
:040274001003000073
:020000040000fa
:04027800100300006f
:020000040000fa
:04027c00100300006b
:020000040000fa
:040280001003000067
:020000040000fa
:040284001003000063
:020000040000fa
:04028800100300005f
:020000040000fa
:04028c00100300005b
:020000040000fa
:040290001003000057
:020000040000fa
:040294001003000053
:020000040000fa
:04029800100300004f
:020000040000fa
:04029c00100300004b
:020000040000fa
:0402a0001003000047
:020000040000fa
:0402a4001003000043
:020000040000fa
:0402a800100300003f
:020000040000fa
:0402ac00100300003b
:020000040000fa
:0402b0001003000037
:020000040000fa
:0402b4001003000033
:020000040000fa
:0402b800100300002f
:020000040000fa
:0402bc00100300002b
:020000040000fa
:0402c0001003000027
:020000040000fa
:0402c4001003000023
:020000040000fa
:0402c800100300001f
:020000040000fa
:0402cc00100300001b
:020000040000fa
:0402d0001003000017
:020000040000fa
:0402d4001003000013
:020000040000fa
:0402d800100300000f
:020000040000fa
:0402dc00100300000b
:020000040000fa
:0402e0001003000007
:020000040000fa
:0402e4001003000003
:020000040000fa
:0402e80010030000ff
:020000040000fa
:0402ec0010030000fb
:020000040000fa
:0402f00010030000f7
:020000040000fa
:0402f40010030000f3
:020000040000fa
:0402f80010030000ef
:020000040000fa
:0402fc0010030000eb
:020000040000fa
:0403000010030000e6
:020000040000fa
:0403040010030000e2
:020000040000fa
:0403080010030000de
:020000040000fa
:04030c0010030000da
:020000040000fa
:0403100010030000d6
:020000040000fa
:0403140010030000d2
:020000040000fa
:0403180010030000ce
:020000040000fa
:04031c0010030000ca
:020000040000fa
:0403200010030000c6
:020000040000fa
:0403240010030000c2
:020000040000fa
:0403280010030000be
:020000040000fa
:04032c0010030000ba
:020000040000fa
:0403300010030000b6
:020000040000fa
:0403340010030000b2
:020000040000fa
:0403380010030000ae
:020000040000fa
:04033c0010030000aa
:020000040000fa
:0403400010030000a6
:020000040000fa
:0403440010030000a2
:020000040000fa
:04034800100300009e
:020000040000fa
:04034c00100300009a
:020000040000fa
:040350001003000096
:020000040000fa
:040354001003000092
:020000040000fa
:04035800100300008e
:020000040000fa
:04035c00100300008a
:020000040000fa
:040360001003000086
:020000040000fa
:040364001003000082
:020000040000fa
:04036800100300007e
:020000040000fa
:04036c00100300007a
:020000040000fa
:040370001003000076
:020000040000fa
:040374001003000072
:020000040000fa
:04037800100300006e
:020000040000fa
:04037c00100300006a
:020000040000fa
:040380001003000066
:020000040000fa
:040384001003000062
:020000040000fa
:04038800100300005e
:020000040000fa
:04038c00100300005a
:020000040000fa
:040390001003000056
:020000040000fa
:040394001003000052
:020000040000fa
:04039800100300004e
:020000040000fa
:04039c00100300004a
:020000040000fa
:0403a0001003000046
:020000040000fa
:0403a4001003000042
:020000040000fa
:0403a800100300003e
:020000040000fa
:0403ac00100300003a
:020000040000fa
:0403b0001003000036
:020000040000fa
:0403b4001003000032
:020000040000fa
:0403b800100300002e
:020000040000fa
:100400008fca20000eff27000e01880000000000a8
:10041000000020000000e000020032000001200087
:10042000200288000c000700c0f925000100200010
:100430000f000700000020000000e0000200320072
:100440000000020000000000f05602000000000062
:100450000040da000000fe00e00b20000000e00099
:1004600002003200002020009001880000000600f9
:10047000a1028800800078000000eb001a0037001d
:10048000e280400054a0b4009101ba00e280400034
:1004900054a0b4009102ba00e280400054a0b4001d
:1004a0000002eb00472bde00f507b200a601880032
:1004b000602ce10008003a000049eb000201e8006e
:1004c000020039003420ec0002f0a0008301e900b2
:1004d000f9ff3e00040037006128e100010032000e
:1004e0000082eb000b00070011c3ba001101ba0033
:1004f0000604e00003003a000200e000e0ff3a00da
:1005000000000600f607b200a6028800820078000c
:10051000f5ff370004d0a300e20f49001c003900aa
:10052000810278003549ba000201e8000200390072
:100530003420ec0002f0a0008301e9000f0032003b
:100540002549ba000201e800020039003420ec001d
:1005500002f0a0008301e900080032000400e0007e
:100560000600320015c9ba000201e8000200390095
:100570003420ec0002f0a0008301e9008180e80053
:1005800054a0b4000300e000e2ff3a0000000600bf
:100590009102ba00055978008301e900f7ff3200a3
:1005a000c82ade00055978008301e900f3ff320014
:1005b0000400e000f1ff320011d9ba00eeff37006d
:1005c0005e59040000000000545f040000000000b9
:1005d000705f040000000000865f0400000000005f
:1005e000045f0400000000004c4b04000000000009
:1005f000284b040000000000a4520400000000008a
:100600005a4b040000000000e44c0400000000000d
:100610007c51040000000000de51040000000000d6
:100620000040da000000fe006022b8000602200050
:100630000000d0008180d2000482d2008582d200e6
:100640000000a0000202520083825a000300310021
:100650000202420083824a000000a1000603e90072
:10066000f3ff3a0000000600e68747008e1f78007f
:10067000d0bf9f00e1bf9f000e0037005fba970018
:1006800014407800efb99700934078000201e90028
:10069000814f5000040032000080fb008180fb008d
:1006a000010050000600370066875700041fe8006d
:1006b000030fe8000200e000f0ff3a000000eb004a
:1006c0004f0778006f00b10000000600800178003d
:1006d00002003700b15978000201e9000200e00091
:1006e000fcff3a000000060080017800020037009d
:1006f000815978000201e9000200e000fcff3a00a5
:1007000000000600800078003104e000feff3a009f
:100710000080ea00008040000000060080017800b0
:10072000060037000201e900b142780085597800df
:10073000030278000504e00006003200030278009e
:100740000200e000f7ff3a0002003700005aeb0019
:100750000201e9000200e000fcff3a000000060090
:020000040000fa
:1007600000950000000000000000000001f90000fa
:1007700000000000000000000887000004000000e6
:100780000000000009af00000000000001000000b0
:100790000a1b000000000000010000000cc3000064
:1007a00001000000000000000daf0000020000008a
:1007b0000000000010ff000000000000000000002a
:1007c00011ff0000000000000100000012ff000007
:1007d000000000000100000018ff00000000000001
:1007e0000100000019ff00000000000001000000ef
:1007f00020ff0000000000000000000021ff0000ba
:10080000000000000000000026df000001000000e2
:10081000000000003773000000000000000000002e
:100820003a25000004000000000000003b25000005
:10083000000000000000000029ff0000040000008c
:100840000000000017ff0000000000000000000092
:100850004c4b0000284b0000a45200005a4b0000f3
:10086000e44c00007c510000de51000054450000c3
:1008700053540000464900004c4500002e43000040
:1008800053560000000000000303000006010000b2
:10089000040600000205000000030000050000003f
:1008a000212300002425000026270000282900001d
:1008b0002d4000005e5f0000607b00007d7e000038
:1008c000205c00002f3a00002a3f0000223c00007c
:0c08d0003e7c00002e2e00000000000006
:020000040000fa
:1008dc000200fa00000f78009e0078007141880039
:1008ec000080fa00000006000200fa000000eb0095
:1008fc00000f780065003700c08220001e00400009
:10090c0011c0b30001487800418320001e0078001c
:10091c004900dd00008140009e007800200320008b
:10092c000088b9008000780040c52000008040009d
:10093c00f10f20008100610090417800e0c161005e
:10094c0081c0710001487800c810de001041900091
:10095c0060416100814071001140980041a320006a
:10096c001e0078004900dd00008140009e007800e8
:10097c00200320000088b9008000780060c52000aa
:10098c0000804000f10f2000810061009041780050
:10099c00e0c1610081c0710001487800c810de0020
:1009ac00104190006041610081407100114098003d
:1009bc001e0078006c00b9008000780060c6200032
:1009cc00008140009e007800200320000088b900c0
:1009dc008000780080c5200000804000f10f2000ce
:1009ec008100610090417800e0c1610081c071001c
:1009fc0001487800c810de00104190006041610091
:100a0c0081407100114098001e0078006c00b90004
:100a1c0080007800e0c62000808040001100780043
:100a2c000000a100800878001e0078006c00b9005e
:100a3c0080007800e0c62000808040001100780023
:100a4c000010a100800878001e0078006c00b9002e
:100a5c008000780060c62000008140000080eb0020
:100a6c008080eb000089be001e0078006c00b9008d
:100a7c0080007800a0c62000008140000080eb00c0
:100a8c008080eb000089be001e0fe8001e0078007d
:100a9c000000e00098ff34000000eb00b063880019
:100aac006000b80090638800a163880010002000eb
:100abc000080fa00000006000000fa008aff070020
:100acc000080fa00000006000400fa00000f780015
:100adc00110798001e007800900090001e009000f6
:100aec00010001000080fa00000006000400fa007a
:100afc00204798000040eb00004f780018003700aa
:100b0c009e80fb00c08220000080400010407800d6
:100b1c000004e00011003a009e80fb00200320003e
:100b2c000088b900000078000003b00051c3200019
:100b3c00e14078002e40900080cf500007003a0032
:100b4c009e80fb00200320000088b9008000780004
:100b5c0040c3200000804000050037001e4fe80015
:100b6c001e4078000004e000e5ff32000000eb00be
:100b7c000080fa00000006000400fa0020479800ec
:100b8c002e409000d9ff0700000f78001e0078005f
:100b9c000000e00002003a000000eb000300370008
:100bac001e007800606890000080fb000080fa0056
:100bbc00000006000e00fa00004f98005107980044
:100bcc00620798000000eb00000f78000e489000c0
:100bdc00c6ff0700100798001e0090000000e00000
:100bec003d003a000040eb004047980037003700ca
:100bfc004e4090008080fb00c082200000804000ae
:100c0c00104078000004e0002d0032004e409000af
:100c1c008080fb00c0822000008040008040eb0000
:100c2c00014878004e4090008080fb0052c32000a9
:100c3c00200320000088b90000007800000041006b
:100c4c000003b0008e489000014878004e409000a0
:100c5c008080fb00200320000088b9008000780011
:100c6c00a0c52000008040005e019000f10f200024
:100c7c008100610010417800604161008140710089
:100c8c0001487800de009000c808de00104190009a
:100c9c006041610081407100114098004e4090000d
:100cac008080fb00200320000088b90080007800c1
:100cbc0040c3200000804000100798000600370059
:100ccc004e4090000040e800404798004e40900095
:100cdc000004e000c6ff32001e0090000000e0009f
:100cec0002003a0030022000a30037004e40900072
:100cfc000080fb006c00b90080007800e0c620008a
:100d0c0080804000110078000000a100800878006d
:100d1c004e4090000080fb006c00b9008000780011
:100d2c00e0c6200080804000110078000010a10077
:100d3c00800878004e4090000080fb006c00b900e9
:100d4c008000780060c62000008140000080eb002d
:100d5c008080eb000089be004e4090000080fb00bc
:100d6c006c00b90080007800a0c620000081400013
:100d7c000080eb008080eb000089be001e0090001c
:100d8c006e019000f10f200081006100006990005d
:100d9c00604161008140710001689800ee00900094
:100dac00c808de001069900060416100814071004c
:100dbc00116898005e009000100078000000e000c0
:100dcc00040032005e009000900078006e009000ed
:100ddc00010001005e009000a00090006e009000e9
:100dec0001000100300798003e00900010007800d0
:100dfc000000e0000300320060002000000f7800cb
:100e0c00260037003e00900010009000610060004a
:100e1c000000e000210032003e0090002000900015
:100e2c006101b8001e009000f10f200081006100ec
:100e3c00005a900060426200814072000158980094
:100e4c00c810de00105a90006042620081407200af
:100e5c0011589800f10f200081806100205a9000f9
:100e6c00604262008140720021589800c818de0070
:100e7c0030599000604161008140710031589800f8
:100e8c003e009000a000900000202000808f5000b9
:100e9c000200360040022000000f78001e0078008f
:100eac000000e00009003a001e009000340007002a
:100ebc00000f78001e0078000000e00003003a00ec
:100ecc001e00900068010700000f78001e007800db
:100edc000000e00017003a00b06380000000e00062
:100eec0024003a009e009000b16388001e0190001f
:100efc00c24990008381fb00524a90000482fb009f
:100f0c004822dd008481710003007800e2499000e2
:100f1c008381fb00724990000281fb004811dd00c7
:100f2c00028171008200780090638800a1638800c0
:100f3c00100037004e4090008080fb0052c3200010
:100f4c00200320000088b900000078000000410058
:100f5c000003b0008040eb00014878004e40900048
:100f6c008080fb00c08220000080400011c0b300d4
:100f7c00014878001e0078000080fa00000006008e
:100f8c001000fa007007980010c0b300004f7800f2
:100f9c000000eb00100798007e009000e0609000cd
:100fac008180fb00706090000080fb004800dd0039
:100fbc0000807000400290007e00900080609000e5
:100fcc008180fb00106090000080fb004800dd0079
:100fdc0000807000800078007e0090000069900016
:100fec000281fb00106890000080fb004800dd00cf
:100ffc00000071006011b800040001000004a200a0
:10100c000004e0000300320080002000100798006c
:10101c00120137007e009000c06090008180fb00c0
:10102c00506090000080fb004800dd0000807000e4
:10103c00000178006000b8000089be007e009000be
:10104c00806090008180fb00106090000080fb00ad
:10105c004800dd0000807000400798004e009000b2
:10106c00e0f8930050c5b30080cf50007f003a00e9
:10107c004e009000f0f89300a0cab30080cf50004f
:10108c007a003a004e009000e070900060c4b3000b
:10109c0080cf500027003a004e009000f070900076
:1010ac0010c4b30080cf500022003a004e009000d4
:1010bc008078900040c5b30080cf50001d003a00ee
:1010cc004e0090009078900010c3b30080cf500079
:1010dc0018003a004e009000e060900090c2b300ff
:1010ec0080cf500013003a007e00900090407800b2
:1010fc00e0c060000148780090409000e0c06000c3
:10110c0011409800a0409000e0c060002140980081
:10111c00b0409000e0c06000314098007e0090002c
:10112c0021c0b300616898000040eb00004f7800cc
:10113c004e0037007e009000806090008180fb00a4
:10114c00106090000080fb004800dd000080700003
:10115c002005b0009040780060c4b30080cf5000f0
:10116c0042003a007e009000806090008180fb007d
:10117c00106090000080fb004800dd0000807000d3
:10118c003005b0009040780010c4b30080cf500000
:10119c0036003a007e009000806090008180fb0059
:1011ac00106090000080fb004800dd0000807000a3
:1011bc004005b0009040780040c5b30080cf50008f
:1011cc002a003a007e009000806090008180fb0035
:1011dc00106090000080fb004800dd000080700073
:1011ec005005b0009040780030c3b30080cf500061
:1011fc001e003a007e009000806090008180fb0011
:10120c00106090000080fb004800dd000080700042
:10121c002004b0009040780090c2b30080cf500002
:10122c0012003a007e00900090407800e0c0600010
:10123c000148780090409000e0c060001140980098
:10124c00a0409000e0c0600021409800b0409000a9
:10125c00e0c06000314098007e00900031c0b300c7
:10126c00616898000040eb00004f78001e40780049
:10127c000004e000790032007e0090008060900055
:10128c008180fb00106090000080fb004800dd00b6
:10129c0000807000500798005e009000e0f893000a
:1012ac0050c5b30080cf500005003a005e0090009e
:1012bc00f0f89300a0cab30080cf500003003200b6
:1012cc004000200010079800640037005e0090007a
:1012dc00e01bb000300798007e0090008040eb00cf
:1012ec00616898000040eb004047980050003700c0
:1012fc003e009000804890008180fb00104a9000d6
:10130c000482fb004822dd0084807000010178001b
:10131c00a04890008180fb00304890000080fb00ca
:10132c004800dd0000807000800178007e00900095
:10133c00f10f2000810061001042780060426200d1
:10134c008140720001487800c810de001042900005
:10135c00604262008140720011409800f10f200041
:10136c0081806100204290006042620081407200e6
:10137c0021409800c818de003041900060416100a7
:10138c0081407100314098003e009000c0409000b8
:10139c00414f98004e4890000080fb00ee0f50002b
:1013ac0019003e00110020000008dd00010524009a
:1013bc00810060000100e0000b003a000180210078
:1013cc00810060000100e0000b003a006200600048
:1013dc000000e0000c0032007e00900011c0b30051
:1013ec0061689800080037007e00900021c0b300af
:1013fc0061689800040037007e00900031c0b30093
:10140c0061689800000000007e0090006068900009
:10141c000004e0000a003a003e009000700040001a
:10142c00300798004e4090000040e800404798007c
:10143c004e409000e34f5000adff360001003700e6
:10144c00000000007e009000606890000004e00046
:10145c0002003a0050002000100798001e00900077
:10146c000080fa00000006001800fa00889fbe00f9
:10147c00300f98000000eb00000f78000040eb00ec
:10148c00604798000040eb00704798003e089000c1
:10149c00e06090008180fb00706090000080fb0099
:1014ac004800dd0000807000400290003e08900073
:1014bc00806090008180fb00106090000080fb0039
:1014cc004800dd0000807000800078003e0890002d
:1014dc009082fb00104390000683fb004833dd0034
:1014ec008682720005017800a04290008582fb0084
:1014fc00304090000080fb004800dd00008072004e
:10150c00800178003e089000806a90008582fb0084
:10151c00106890000080fb004800dd000080720025
:10152c00040001000004a2000004e00003003200eb
:10153c0080002000000f7800210337003e08900047
:10154c00c06090008180fb00506090000080fb0028
:10155c004800dd0000807000800178003e0990009a
:10156c001282fb00924290008582fb00c82add00ab
:10157c000502720004007800224290000482fb00f5
:10158c00324190000281fb004811dd000201720023
:10159c00820078008089be003e0890008060900038
:1015ac008180fb00106090000080fb004800dd0093
:1015bc0000807000400798004e009000e0f8930007
:1015cc0050c5b30080cf500005003a004e0090008b
:1015dc00f0f89300a0cab30080cf50000300320093
:1015ec0030002000000f7800490237003e089000c0
:1015fc00806090008180fb00106090000080fb00f8
:10160c004800dd0000807000e1002000b71f0700db
:10161c00500798003e089000806090008180fb008d
:10162c00106090000080fb004800dd00008070001e
:10163c006d004000904078003e0890005168980082
:10164c003e0990009281fb00124290000482fb0044
:10165c004822dd008481710003007800a2419000d3
:10166c008381fb00324190000281fb004811dd00b8
:10167c0002817100820078005e0190008001eb0015
:10168c0000014100818149003e089000f10f2000cb
:10169c008100610040429000604262008140720013
:1016ac0041409800c810de00504290006042620039
:1016bc008140720051409800f10f20008180610040
:1016cc00604290006042620081407200614098006c
:1016dc00c818de00704190006041610081407100cb
:1016ec00714098003e089000806090008180fb0063
:1016fc00106090000080fb004800dd00008070004e
:10170c0070004000904078003e08900041689800be
:10171c003e089000806090008180fb00106090007b
:10172c000080fb004800dd0000807000610120009b
:10173c006e1f07006101b8003e089000f10f2000f9
:10174c0081006100405a900060426200814072004a
:10175c0041589800c810de00505a90006042620058
:10176c008140720051589800f10f20008180610077
:10177c00605a90006042620081407200615898008b
:10178c00c818de0070599000604161008140710002
:10179c00715898003e099000c25990008381fb005b
:1017ac00525a90000482fb004822dd0084817100b3
:1017bc0003007800e25990008381fb00725990007d
:1017cc000281fb004811dd0002817100820078006b
:1017dc00e00f5000e08f580021003a003e089000c6
:1017ec00806090008180fb00106090000080fb0006
:1017fc004800dd000080700041022000541f0700eb
:10180c000001be003e089000f10f20008100610035
:10181c00405a90006042620081407200415898002a
:10182c00c810de00505a9000604262008140720085
:10183c0051589800f10f200081806100605a90008f
:10184c00604262008140720061589800c818de0046
:10185c00705990006041610081407100715898008e
:10186c003e089000c04090008180fb0050419000e9
:10187c000281fb004811dd008280700001027800bb
:10188c00e04090008180fb00704090000080fb00e5
:10189c004800dd0000807000800278003e08900057
:1018ac00406890000081fb008001eb003e0b900033
:1018bc00c65b90008783fb00565c90000884fb009d
:1018cc004844dd008883730007007800e65b9000d5
:1018dc008783fb00765b90000683fb004833dd00ba
:1018ec000683730086007800009bb900060378001d
:1018fc00028cb90088037800070343000010b8007d
:10190c0001034300860078000401400085814800f3
:10191c003e089000f10f200081006100004a900009
:10192c00604262008140720001489800c810de00dd
:10193c00104a900060426200814072001148980089
:10194c00f10f200081806100204a9000604262000b
:10195c008140720021489800c818de003049900080
:10196c006041610081407100314898003e08900050
:10197c00806090008180fb00106090000080fb0074
:10198c004800dd000080700011012000d71e070008
:10199c00800078003e089000f20f20000281600069
:1019ac00a0699000e0c1610002c17100226898003a
:1019bc00c808de0030699000604161008140710010
:1019cc00316898003e089000806090008180fb0098
:1019dc00106090000080fb004800dd00008070006b
:1019ec0031012000c11e07008000eb001007980099
:1019fc00210798001e009000ae009000e00f5000f0
:101a0c00e08f58000b003a003e0890008060900078
:101a1c008180fb00106090000080fb004800dd001e
:101a2c000080700001022000c91e070010079800fa
:101a3c00210798003e089000806090008180fb0098
:101a4c00106090000080fb004800dd0000807000fa
:101a5c00b1002000a51e0700600798006e009000e2
:101a6c000000e000050032006e0090006100600094
:101a7c00004078000004e000030032004002200027
:101a8c00000f7800220137003e089000a0689000fb
:101a9c008180fb00306890000080fb004800dd0076
:101aac0000807000c500dd006e00900000804000da
:101abc008000e9006e009000000178001100090020
:101acc008280d8008000eb0070079800010f98000e
:101adc005e0090006103b8003e08900040689000e2
:101aec000081fb008001eb003e0a9000c45a90007c
:101afc008582fb00545c90000884fb004844dd00a8
:101b0c008882720005007800e45a90008582fb0000
:101b1c00745a90000482fb004822dd00048272009b
:101b2c0084007800009ab90004027800028cb90095
:101b3c0088027800050242000010b8000102420041
:101b4c008400780006014000878148007e009000e8
:101b5c008e08900002004000838048001e01900017
:101b6c00ae0190000000510081805900100f9800c8
:101b7c00210f98003e089000506890000080fb00f8
:101b8c008000eb000001be001e089000ae08900023
:101b9c00a2fa07000001be003e089000f10f2000e1
:101bac0081006100405290006042620081407200ee
:101bbc0041509800c810de00505290006042620004
:101bcc008140720051509800f10f2000818061001b
:101bdc006052900060426200814072006150980037
:101bec00c818de00705190006041610081407100a6
:101bfc00715098003e099000c25190008381fb0007
:101c0c00525290000482fb004822dd008481710056
:101c1c0003007800e25190008381fb007251900028
:101c2c000281fb004811dd00028171008200780006
:101c3c0042ff200003002000820f5000838f5800c9
:101c4c0004003e003e08900011c0b300616898008b
:101c5c001b0037003e099000c25190008381fb00ad
:101c6c00525290000482fb004822dd0084817100f6
:101c7c0003007800e25190008381fb0072519000c8
:101c8c000281fb004811dd000281710082007800a6
:101c9c0042ff2f0003002000820f5000838f58005a
:101cac0004003e003e08900021c0b300616898001b
:101cbc00030037003e08900031c0b3006168980003
:101ccc003e08900060689000e34f50004c003a00d2
:101cdc003e089000806090008180fb0010609000b6
:101cec000080fb004800dd0000807000c102200075
:101cfc00171e07000001be003e089000f10f2000e7
:101d0c0081006100404a9000604262008140720094
:101d1c0041489800c810de00504a900060426200b2
:101d2c008140720051489800f10f200081806100c1
:101d3c00604a9000604262008140720061489800e5
:101d4c00c818de007049900060416100814071004c
:101d5c00714898003e099000824990008381fb00f5
:101d6c00124a90000482fb004822dd00848171003d
:101d7c0003007800a24990008381fb003249900057
:101d8c000281fb004811dd000281710082007800a5
:101d9c007e0190008e099000000141008181490074
:101dac003e089000f10f200081006100005290006d
:101dbc00604262008140720001509800c810de0041
:101dcc0010529000604262008140720011509800e5
:101ddc00f10f20008180610020529000604262006f
:101dec008140720021509800c818de0030519000dc
:101dfc006041610081407100315098003e00370015
:101e0c003e089000c0489000e0c060004148980037
:101e1c00d0489000e0c0600051489800e048900025
:101e2c00e0c0600061489800f0489000e0c060009d
:101e3c00714898003e099000824990008381fb0014
:101e4c00124a90000482fb004822dd00848171005c
:101e5c0003007800a24990008381fb003249900076
:101e6c000281fb004811dd000281710082007800c4
:101e7c003e099000a26990008381fb0032699000ba
:101e8c000281fb004811dd00028171004411de006b
:101e9c008001eb0000014100818149003e08900067
:101eac00f10f20008100610000529000604262003e
:101ebc008140720001509800c810de001052900052
:101ecc00604262008140720011509800f10f2000b6
:101edc00818061002052900060426200814072005b
:101eec0021509800c818de0030519000604161000c
:101efc008140710031509800ee00900000202000cd
:101f0c00808f50000200360040022000000f780045
:101f1c003e08900060689000e34f50000d003200c6
:101f2c001e0078000000e0009e0032004e00900081
:101f3c00a0c0900090c2b30080cf500005003200ca
:101f4c004e009000a0c0900080c2b30080cf500023
:101f5c0096003a004e009000b05090008180fb003b
:101f6c00405090000080fb004800dd0000807000b5
:101f7c000000e0000a003a004e009000a0c0900063
:101f8c0090c2b30080cf5000070032004e0090008a
:101f9c00a0c0900080c2b30080cf5000020032007d
:101fac0030002000000f78001e0078000000e000d8
:101fbc00400032006e4090000004a2000004e000db
:101fcc003c00320010c0b300604798003e089000ff
:101fdc00e06090008180fb00706090000080fb004e
:101fec004800dd0000807000c00290003e089000a8
:101ffc00806090008180fb00106090000080fb00ee
:10200c004800dd0000807000000278003e0990005e
:10201c009281fb00124390000683fb004833dd00e5
:10202c008681710003007800a24190008381fb003f
:10203c00324190000281fb004811dd0002817100e9
:10204c00820078004e019000a27190008381fb0009
:10205c00327190000281fb004811dd000281710099
:10206c008001eb0000014100818149003e08900095
:10207c00806890008180fb00106890000080fb005d
:10208c004800dd000080700084007800050001002d
:10209c000004a2000004e0000300320080002000d5
:1020ac00000f7800460037000000eb00000f7800ae
:1020bc003b0037001e0078000000e0003d003200bd
:1020cc007e4090000004a2000004e0003b003200bf
:1020dc0010c0b300704798003e089000e06090007c
:1020ec008180fb00706090000080fb004800dd00e8
:1020fc0000807000c00290003e089000806090004c
:10210c008180fb00106090000080fb004800dd0027
:10211c0000807000000278003e0990009281fb0064
:10212c00124390000683fb004833dd00868171006a
:10213c0003007800a24190008381fb0032419000a3
:10214c000281fb004811dd000281710082007800e1
:10215c0066014000e08148003e08900080689000d5
:10216c008180fb00106890000080fb004800dd00bf
:10217c000080700084007800050001000004a200bb
:10218c000004e0000300320080002000000f780003
:10219c000b0037000000eb00000f7800000000007f
:1021ac0005fd3700000000000500370000000000ae
:1021bc0003003700000000000100370000000000a1
:1021cc001e0078004f04be000080fa0000000600dc
:1021dc000600fa00404798004e40900043fa070072
:1021ec00100798001e0090000000e00002003a006a
:1021fc000080eb0049003700110020001e00900009
:10220c00540a07008000eb001e009000510a0700e2
:10221c001e009000e06090008180fb0070609000d8
:10222c000080fb004800dd0000807000b0009000d2
:10223c001e009000006990000281fb001068900065
:10224c000080fb004800dd0000007100010001006f
:10225c000040eb00004f7800230037009e80fb000d
:10226c00200320000088b900000078000003b000b3
:10227c0051c32000e14078004e40900080cf5000c8
:10228c0018003a009e80fb00c082200000804000b5
:10229c0011c0b300014878009e80fb0052c320009f
:1022ac00200320000088b9000000780000004100e5
:1022bc00e002b0008040eb00014878009e80fb00fb
:1022cc0052c32000200320000088b90000007800d1
:1022dc00000041000003b0008040eb000148780092
:1022ec00040037001e4fe8001e4078000004e00098
:1022fc00daff3200b16380001e009000808f500026
:10230c0005003a006000b80090638800a163880063
:10231c000000eb00b06388000000eb000080fa00c6
:10232c00000006000c00fa0040079800214f9800ae
:10233c0010002000100798000040eb004047980068
:10234c000040eb00504798004e0090009040780001
:10235c00e0c2b30080cf500097003a004e009000ce
:10236c000000e80010407800604798006e40900034
:10237c000004e00004003200ee409000f0c2b30014
:10238c0080cf500002003a0030c0b300a2003700ea
:10239c00ee409000e0c2b30080cf500088003a00bd
:1023ac004e0090000080e8001040780060479800d4
:1023bc006e4090000004e00004003200ee409000fb
:1023cc00f0c2b30080cf50007f003a0030c0b300a1
:1023dc00910037001e009000e10f500054003a00ad
:1023ec005e4090000040e80050479800ee4090009e
:1023fc0000c4b30080cf500004003600ee409000c3
:10240c00a0c5b30080cf50003b003600ee409000da
:10241c00f0c2b30080cf500004003600ee409000b4
:10242c0090c3b30080cf5000330036006e40900054
:10243c000004e00030003500ee409000e0c2b30034
:10244c0080cf50000c003a004e4090000004a200d7
:10245c000004e0000500320010c0b30040479800b3
:10246c000040eb005047980023003700200020006c
:10247c0010079800200037000040eb00004f780058
:10248c00070037001e80fb0001452800e140780062
:10249c006e40900080cf5000050032001e4fe800c7
:1024ac001e407800f04f5000f6ff36000100370058
:1024bc00000000001e407800f14f50000e003a0062
:1024cc002e4890000004a2000004e00008003a002e
:1024dc00ee409000f0c3b30080cf500006003200f5
:1024ec00ee409000a0c2b30080cf5000020032003a
:1024fc0020002000100798004e4090000004e000df
:10250c00060032005e409000e34f50000800360099
:10251c002000200010079800050037005e40900056
:10252c00e84f5000020036002000200010079800f1
:10253c001e009000e20f500024003a000040eb0017
:10254c00004f7800180037001e80fb001146280051
:10255c00e14078006e40900080cf500011003a00ae
:10256c002e4890000004a2000004e00008003a008d
:10257c00ee409000f0c3b30080cf50000900320051
:10258c00ee409000a0c2b30080cf50000500320096
:10259c000000eb00100798001e009000004078002f
:1025ac001d0037001e4fe8001e407800e84f500019
:1025bc00e5ff36000500370000000000030037007f
:1025cc000000000001003700000000004e009000e9
:1025dc0010407800604798006e4090000080fb002f
:1025ec000000ea004f00de0000407800ce009000b2
:1025fc008100e800410798000004e000040032006c
:10260c00ee409000f0c2b30080cf500071ff3a0052
:10261c001e009000004078000080fa0000000600c8
:10262c000600fa0010079800210798000040eb0004
:10263c00004f7800060037001e80fb00ae009000b3
:10264c00008040009e409000716098001e4fe80092
:10265c001e00900090407800114798009e4090001a
:10266c00e0c2b30000c068000080fb000000ea007c
:10267c004f00de00004078009e0090008100e800d2
:10268c00110798000004e0000e0032001e4090007c
:10269c000004e0000b0032009e409000f0c2b3003a
:1026ac0080cf5000e4ff3a00060037001e80fb008c
:1026bc00ae0090000080400001c2b3007160980031
:1026cc001e4fe8001e407800e74f5000f7ff360021
:1026dc009e409000e0c2b30080cf50001b003a0037
:1026ec00060037001e80fb00ae009000008040000a
:1026fc009e409000716098001e4fe8001e009000f4
:10270c0090407800114798001e4090000080fb001c
:10271c000000ea004f00de00004078009e009000b0
:10272c008100e800110798000004e000edff3a007a
:10273c00060037001e80fb00ae00900000804000b9
:10274c0001c2b300716098001e4fe8001e40780073
:10275c00ea4f5000f7ff36000080fa000000060038
:10276c001a00fa00200f9800310f9800420f9800c1
:10277c000000eb00100f9800680047000041eb00d0
:10278c00be08900026010700300f98003e0890000c
:10279c000000e00002003a000080eb00ce003700a1
:1027ac004e009000de00900070079800010f98001a
:1027bc006e009000e06090008180fb0070609000e3
:1027cc000080fb004800dd0000807000e0009000fd
:1027dc006e009000006990000281fb001068900070
:1027ec000080fb004800dd000000710001000100ca
:1027fc000004e000090032004e0890006e006000fa
:10280c000000e000050032006e009000a1c1b30092
:10281c00017098000080eb00af0037002e0890008c
:10282c000000e00005003a006e00900021c2b300e9
:10283c00017098000080eb00a70037008040eb008f
:10284c003e089000b7fe0700204798002e409000ed
:10285c00e14f50001c003a004e009000de0090004a
:10286c0070079800010f98000000eb00100f980003
:10287c00ae0890003e08900069ff07002e089000fb
:10288c007002b00080007800f20147006e01470032
:10289c0068004700270020000003eb008002eb00db
:1028ac00030278008201780001017800ae089000e4
:1028bc007c030700000f78001e0078000000e00089
:1028cc0006003200210037006e00900031c1b300c9
:1028dc00017098000080eb007f0037004e089000dc
:1028ec00680060000000e00006003a006800470045
:1028fc00ae0890007a0007000004a2000004e0007b
:10290c000d0032002e0890007008900030079800df
:10291c006600470012c0b300800078002e089000bb
:10292c00770c0700000f78004e0890000020a000e4
:10293c00400f98001a003700ce089000b0ff2f000f
:10294c0000806000400f9800150037001e007800d2
:10295c00ef0f500012003a004e0890006400600027
:10296c000000e0000e0032000000eb00000f7800c9
:10297c00ee0090002e089000410898004e00900048
:10298c00de0090002e0990000089be004e009000e1
:10299c00de0090002e099000200198003101980073
:1029ac001e0078000000e00010003a004e08900075
:1029bc00640060000000e0000c0032000000eb003e
:1029cc00300798006600470013c0b3000041eb00cd
:1029dc00800078002e089000f6030700000f7800a6
:1029ec004e0890000040a000400f98001e00780098
:1029fc000000e0002e003a004e08900061006000dc
:102a0c00004078000004e00005003200ae089000a1
:102a1c00111890000010a0009018980004003700c6
:102a2c00ae089000111890000010a10090189800aa
:102a3c004e089000620060000000e00005003200cb
:102a4c00ae089000111890000000a000901898009b
:102a5c0004003700ae089000111890000000a1008f
:102a6c00901898004e089000700060000000e00084
:102a7c000f003200210020006011b8002e089000d9
:102a8c00d0100700200798002e0090000000e000f6
:102a9c0003003200c0012000000f78000400370052
:102aac00ce089000f0fe2f0000806000400f9800d0
:102abc001e0078000000e000060032006e0090005e
:102acc009e00780081407800017098000080eb0037
:102adc00010037000000eb000080fa000000060047
:102aec000e00fa0050079800610798006e009000e5
:102afc001000be0020079800310798000000eb0082
:102b0c00400798002e009000be009000e00f50008f
:102b1c00e08f580012003a005e00900020019000f7
:102b2c00c24990008381fb00524a90000482fb0052
:102b3c004822dd008481710003007800e249900096
:102b4c008381fb00724990000281fb004811dd007b
:102b5c0002817100820078002007980031079800ec
:102b6c006e009000f009900068014700e4004700f7
:102b7c000e80e800030278008201780001017800e1
:102b8c00800078005e009000b3060700000f78000c
:102b9c001e0078000000e00002003a000040eb004c
:102bac000b0037001e007800200890000000e000a9
:102bbc0006003a001e007800500890000000e0006b
:102bcc0002003a000040eb000100370010c0b300d7
:102bdc000080fa00000006000600fa0020079800aa
:102bec002e009000200890008000eb00008fbe00ab
:102bfc001e00be00c000dd0000002000008fbe00e3
:102c0c002e009000500890008000eb001e1f7000fa
:102c1c001e9770001e00be000080fa000000060027
:102c2c000a00fa002007980031079800024f98001c
:102c3c003e009000b0f60700000f78001e007800f0
:102c4c000000e00002003a000000eb007e003700bc
:102c5c006200200021c720002e00900098f607008b
:102c6c001e007800e10f500002003a003e00900078
:102c7c00750037003e0090000000e800904078009e
:102c8c00a0c3b30080cf500066003a003e00900015
:102c9c001040780095f70700ae009000a000980057
:102cac002e009000200090000000e00002003a008e
:102cbc000000eb00640037002e0090002001900013
:102ccc00c24990008381fb00524a90000482fb00b1
:102cdc004822dd008481710003007800e2499000f5
:102cec008381fb00724990000281fb004811dd00da
:102cfc0002817100820078002e0190000089be00d4
:102d0c003e0090000080e800300798001e8fe9001c
:102d1c001e0078000000e00002003a003e00900027
:102d2c00490037003e00900090407800f0c2b3009c
:102d3c0080cf50003b003a003e0090000000e800bd
:102d4c00300798001e0fe9001e0078000000e0001c
:102d5c0034003a003e0090003b003700be0090006b
:102d6c001e0090000080400090407800f0c2b3003c
:102d7c0080cf500007003a001e0090000000e800d1
:102d8c00be00900000804000104078000004e0007d
:102d9c002b0032001e0090000000e00018003200f2
:102dac00be0090002e009000480007000000e000dc
:102dbc00130032000e4890000004e0000e003200b8
:102dcc00be0090002e009000a50007000000e0005f
:102ddc00020032000000eb001b003700be00900028
:102dec002e009000390007000000e00004003200c3
:102dfc000000eb00140037000000eb00120037005d
:102e0c001e0090000000e80010079800be00900023
:102e1c001e00900000804000300798001e009000bb
:102e2c001e0f10003e0090000900070010079800cc
:102e3c001e009000e10f4000c8ff3a00010037006f
:102e4c00000000003e0090000080fa000000060028
:102e5c000600fa00200798000000eb00000f780035
:102e6c00010037001e0fe8002e0090009040780003
:102e7c00214798002e4090000080fb000000ea00e3
:102e8c004f00de0000407800ae0090008100e800aa
:102e9c00210798000004e00004003200ae409000ce
:102eac00f0c2b30080cf5000eeff3a002e409000ed
:102ebc000004e00002003a000080eb000100370043
:102ecc001e0078000080fa00000006004600fa00a0
:102edc0010279800212798006e0f47008040eb00c8
:102eec002e2090000ffd0700204798002e409000e8
:102efc000004e00006003a001e2090002000900024
:102f0c0031c1b300017098000080eb005200370013
:102f1c002e409000e14f50001b003a001e20900004
:102f2c001000be0040079800510798000000eb000d
:102f3c00600798009e0078002e209000b8fd0700d6
:102f4c00710220001e8040006c014700e800470021
:102f5c0027002000f60320008002eb00020278001c
:102f6c0081017800000178009e0078001e209000fe
:102f7c00cc010700300798003e0090000000e000f4
:102f8c002d003200330037002e409000e34f5000ec
:102f9c0023003a002e2090000000e80090407800ba
:102fac00e0c2b30080cf5000020032000000eb0002
:102fbc00290037001e2090001000be00400798002a
:102fcc00510798000000eb00600798006c01470067
:102fdc00e8004700660047001400200082017800da
:102fec0001017800800078001e2090009a050700ef
:102ffc00200798003e0090000000e00006003a0018
:10300c002e009000f4fe07001e2190000089be00e7
:10301c000000eb00100037000080eb000e003700c2
:10302c001e2090002000900031c1b3000170980068
:10303c000080eb00080037001e007800d0009000e4
:10304c00400090001e2190000089be000000eb00a3
:10305c00010037000080eb000080fa000000060041
:10306c005600fa00102f9800212f9800700047008e
:10307c00200798000000eb00502798000000eb00a0
:10308c00002f98001e2890001000be00000f980022
:10309c00110f98000e0890009e089000e00f500051
:1030ac00e08f580012003a001e289000200190007a
:1030bc00c24990008381fb00524a90000482fb00bd
:1030cc004822dd008481710003007800e249900001
:1030dc008381fb00724990000281fb004811dd00e6
:1030ec000281710082007800000f9800110f980087
:1030fc001e28900020009000401798008040eb00a4
:10310c002e28900087fc0700604798006e409000c6
:10311c000004e000030032006e409000e34f5000ca
:10312c0006003a001e2890002000900031c1b30028
:10313c00017098000080eb008d0037006e4090000d
:10314c00e14f50000d003a00ae0090002e28900088
:10315c0033fd0700a00420000e00400013c0b30094
:10316c0002c1b300800078002e009000110207000d
:10317c000000e00007003a00080037001e2890000d
:10318c002000900031c1b300017098000080eb006a
:10319c00770037000080eb00750037000e0a9000b6
:1031ac009e0a90004e10900000017800c2499000d9
:1031bc008381fb00524b90000683fb004833dd00fb
:1031cc008681710003007800e24990008381fb0046
:1031dc00724990000281fb004811dd0002817100f0
:1031ec0082007800800f5200818f5a0003003a0051
:1031fc006000b800008fbe00030037000e0990007d
:10320c009e099000028fbe000e0890009e08900050
:10321c00200f9800310f98000e0890009e08900027
:10322c001e2990000089be000e0890009e08900098
:10323c006027980071279800de219000020520007d
:10324c000e014100c10420008e8040006e0047003a
:10325c000302780082017800010178008000780078
:10326c001e289000fc040700400798004e009000b8
:10327c000000e00007003a001e289000200090009b
:10328c00fe00900081407800017098000080eb00f7
:10329c00370037004e0090005048900000cf980047
:1032ac004e00900070009000302798004e00900067
:1032bc0000089000202798004e00900046fe070062
:1032cc0050079800610798004e089000de089000a7
:1032dc001e2990000089be004e089000de08900068
:1032ec0060279800712798000000eb00002f9800d1
:1032fc000000eb0050279800de2190000205200012
:10330c000e014100c10420008e8040006e00470079
:10331c0003027800820178000101780080007800b7
:10332c001e289000cc040700400798000e0890005f
:10333c009e0890001e2990000089be001e28900057
:10334c0020009000410420008e8040001e02be0030
:10335c005e019000ee019000070007000000e00005
:10336c00020032000000eb00010037000080eb008f
:10337c000080fa00000006001200fa0030079800e6
:10338c004207980053079800640798007507980047
:10339c00010f98003e019000825990008381fb0040
:1033ac00125a90000482fb004822dd0084817100d7
:1033bc0003007800a25990008381fb0032599000e1
:1033cc000281fb004811dd0002817100820078004f
:1033dc00800078003e009000006190000281fb00ac
:1033ec00106090000080fb004800dd0000007100c0
:1033fc00010178008000eb00b8f407003e0090005b
:10340c00806090008180fb00106090000080fb00c9
:10341c004800dd0000807000000f78003e00900036
:10342c00806090008180fb00106090000080fb00a9
:10343c004800dd0000807000b20020000102200076
:10344c00a6f407001e007800e1c2b3000148780022
:10345c001e00780001c1b300314898001e007800ae
:10346c008040eb0041489800ce0090001e00780090
:10347c00510898004e019000de01900000002000e1
:10348c00f1ff20000202780003017800800178002f
:10349c000100780003026200000061008000eb0074
:1034ac00c000dd00000020000001be006120b8005b
:1034bc0000017100818171004018de0001002000c4
:1034cc00800078001e007800210898001e0178000a
:1034dc006000b80060099800710998000e0890000f
:1034ec00c04090001e007800514898000e089000d3
:1034fc00900090001e007800710098000e0890005b
:10350c00900090001e007800010898001e007800c2
:10351c008000eb00110898001e0078008000eb0082
:10352c00310898001e0078008000eb0041089800dc
:10353c003e009000806090008180fb001060900045
:10354c000080fb004800dd000080700080007800e7
:10355c003e009000006190000281fb001060900022
:10356c000080fb004800dd00000071000002b0008c
:10357c000202200052f407003e0090008060900090
:10358c008180fb00106090000080fb004800dd0093
:10359c000080700001022000010f40001e00780026
:1035ac00e1c2b30011409800ee0090001e007800bc
:1035bc00510898006e019000fe0190000000200060
:1035cc00f1ff2000020278000301780080017800ee
:1035dc000100780003026200000061008000eb0033
:1035ec00c000dd00000020000001be006120b8001a
:1035fc0000017100818171004018de000100200083
:10360c00800078001e007800210898004e01900080
:10361c00de0190003e00900048060700100798005d
:10362c00210798003e009000c06090008180fb0054
:10363c00506090000080fb004800dd0000807000ae
:10364c0080007800410090000000a000c0009800ad
:10365c003e009000c06090008180fb0050609000a4
:10366c000080fb004800dd00008070001e0190000f
:10367c00ae0190000288be008000eb003e0090007e
:10368c00340507000004a2000004e0000200320030
:10369c000000eb0001003700100020000080fa0051
:1036ac00000006001400fa0020079800310798006b
:1036bc004207980053079800640798007507980014
:1036cc00060f9800170f98000000eb0010079800e9
:1036dc005e0090001000be00e00f5000e08f58001c
:1036ec0016003a002e00900020019000c249900074
:1036fc008381fb00524a90000482fb004822dd00cb
:10370c008481710003007800e24990008381fb0002
:10371c00724990000281fb004811dd0002817100aa
:10372c00820078005e0190000089be000300370023
:10373c000000000001003700000000000e80e800cf
:10374c007e029000ee0190005e01900080007800f7
:10375c002e009000c0030700000f78001e009000a0
:10376c00ef0f50001d0032001e009000fd0f5000a6
:10377c0006003a002e00900020009000d1c1b3004a
:10378c00017098001e009000880037007e009000a9
:10379c000000e800700798001e0078003048900088
:1037ac00ef4f5000080032001e00780030489000a7
:1037bc00e84f5000040032001e00780010407800e2
:1037cc00fb4f400006003a001e00780010407800c5
:1037dc000004e000d9ff3a000100370000000000af
:1037ec001e009000ef0f5000040032001e00780005
:1037fc00104078000004e00002003a00f0002000c5
:10380c006a0037001e089000680060000000e000ad
:10381c000a0032001e007800304890008080fb00c7
:10382c000e089000808060001e00780030489000e8
:10383c000080fb00808f5000bdff3a001e089000f6
:10384c00804078001e0078000141780080007800ec
:10385c004e009000650507000004e000b6ff320042
:10386c009e0078003e0090007002b000b200200074
:10387c0093f307002e009000a00090003e009000f3
:10388c00410898001e007800d3fc07003e01900010
:10389c0040019800510198003e009000d00090002b
:1038ac00400090003e01900060019800710198006a
:1038bc003e0090008000eb00510898003e00900004
:1038cc008000eb00610898003e0190006000b80099
:1038dc0020099800310998001e007800f00890002b
:1038ec00600890003e0190000009980011099800b2
:1038fc001e007800304890008080fb003e00900055
:10390c00011098003e0090000010900070006000c4
:10391c000000e0000d0032001e007800d04890003e
:10392c003e009000616098001e007800f00090004e
:10393c003e009000111098001e0078008008900046
:10394c003e00900021109800080037001e007800ff
:10395c00b00890003e009000111098001e007800f6
:10396c00c00890003e009000211098007e0090004e
:10397c000000e900700798003e009000fe009000e7
:10398c00710898002e0090001000be003e019000bf
:10399c000089be002e0090001000be003e01900079
:1039ac0020019800310198000000eb000080fa0023
:1039bc00000006000c00fa00300798004107980040
:1039cc00224f9800334f98000000eb00000f780056
:1039dc004e0090008000eb0001087800ce009000b3
:1039ec003e0090004f0107000000e0001b003a0071
:1039fc003e4890000004e0000a0032003e009000b7
:103a0c002000070010079800210798003e00900046
:103a1c0040089000007090000080fb00000f7800c0
:103a2c00030037006000b8001007980021079800c9
:103a3c001e0078000000e0000a003a001e02900010
:103a4c00ae0290002e499000ce0090003e009000f7
:103a5c007b000700000f7800020037006001200097
:103a6c00000f78003e009000400890009e00780007
:103a7c0081407800017098001e0078000080fa00e8
:103a8c00000006000a00fa00400798000000eb0056
:103a9c00000f78004e00900040089000100798002e
:103aac004e009000400890002200200003002000ef
:103abc00e101070020079800310798002e009000c4
:103acc00be009000e00f5000e08f580003003a0059
:103adc0070012000000f78003f0037001e0090009e
:103aec0060689000e14f500010003a008040eb00fd
:103afc0084ff2000050020002e019000be019000e4
:103b0c001e009000300907000001be00f0ff2f00de
:103b1c0001002000800f5100818f590026003a00cf
:103b2c0090002000000f7800230037001e0090004a
:103b3c0060689000e24f500010003a008040eb00ab
:103b4c0084ff2f00050020002e019000be01900084
:103b5c001e0090001c0907000001be00f0ff2f00a2
:103b6c0001002000800f5100818f590012003a0093
:103b7c0090002000000f78000f0037008040eb0011
:103b8c0084ff2f00f5ff20002e019000be01900055
:103b9c001e0090000c0907000001be00f0ff2f0072
:103bac00f1ff2000800f5100818f590002003a0074
:103bbc0090002000000f78001e0078000000e0004c
:103bcc0005003a002e019000be0190001e009000ee
:103bdc0019020700000f7800110020001e00900051
:103bec00dc0307000004a2000004e0000200320025
:103bfc0090002000000f78004e0090002e019000e5
:103c0c00be01900042009800530098004e009000b6
:103c1c002e019000be019000620098007300980085
:103c2c001e007800804078001e0090000170980003
:103c3c002e009000be0090000080fa0000000600ec
:103c4c002000fa00300f9800410f9800225f980076
:103c5c00640f9800750f98000000eb001007980097
:103c6c000000eb00700798003e0890001000be00aa
:103c7c0020079800310798003e08900040089000fb
:103c8c00400798003e0890001000be0050079800b6
:103c9c00610798004e08900010027800ee01470072
:103cac006a0147008e80e800640047006a02070042
:103cbc00000f78001e0078000000e00006003a00bb
:103ccc003e08900040089000d1c1b30001709800ec
:103cdc00d0012000910037003e08900071022000b6
:103cec00808040001e007800b200200088f207009f
:103cfc001e007800ae589000314898001e007800e5
:103d0c008040eb0041489800ee0890001e007800bf
:103d1c00510898006e099000fe09900000002000e8
:103d2c00f1ff200002027800030178008001780086
:103d3c000100780003026200000061008000eb00cb
:103d4c00c000dd00000020000001be006120b800b2
:103d5c0000017100818171004018de00010020001b
:103d6c00800078001e007800210898001e01780061
:103d7c006000b800600998007109980070418000db
:103d8c000000e00003003200714180007000470029
:103d9c0001000100ce5090001e00780051489800a0
:103dac009e0890001e007800710098008e0890000c
:103dbc001e007800010898009e0890001e007800f4
:103dcc00310898008e0890001e0078004108980079
:103ddc003e0890006e099000fe0990004200980089
:103dec00530098003e0890006e099000fe09900068
:103dfc0062009800730098003e0890008000eb0071
:103e0c00510898003e0890008000eb006108980073
:103e1c003e0990006000b800200998003109980014
:103e2c001e007800f0089000600890003e09900099
:103e3c0000099800110998001e0078003048900085
:103e4c008080fb003e089000011098003e08900016
:103e5c0000109000700060000000e0000d003200c7
:103e6c001e007800d04890003e08900061609800d9
:103e7c001e007800f00090003e0890001110980091
:103e8c001e007800800890003e08900021109800d9
:103e9c00080037001e007800b00890003e08900023
:103eac00111098001e007800c00890003e08900089
:103ebc00211098004e089000900078003e08900069
:103ecc00710898002e009000be0090003e099000f2
:103edc000089be002e009000be0090003e099000ac
:103eec0020019800310198003e0890004008900095
:103efc00c06090008180fb00506090000080fb004f
:103f0c004800dd00008070008000780041009000c7
:103f1c000000a000c00098001e0090000080fa0075
:103f2c00000006002200fa00700f9800011798009c
:103f3c000000eb00000f98007e0890001000be00ff
:103f4c00400f9800510f98000000eb00600f980094
:103f5c000000eb00300798007e08900040089000ad
:103f6c00300f98007e0890001000be00100f9800d3
:103f7c00210f980010c0b300004f98000e10900055
:103f8c0090007800210798005a0037000040eb00a1
:103f9c00004f78002e019000120798004e099000f7
:103fac00de0990005207980063079800fc01470057
:103fbc0078014700f0004700720047002e02900085
:103fcc00a5010700700798002e0090000000e80083
:103fdc00200798007e0090000000e0000d003200e9
:103fec007e00900010407800fb4f4000040032002f
:103ffc007e009000104078000004e00005003a00bc
:10400c001e4fe8000e4890009e40780080cf500074
:10401c00e2ff39007e0090000000e0002f003a0023
:10402c007e0890004008900000017800c249900082
:10403c008381fb00524a90000482fb004822dd0081
:10404c008481710003007800e24990008381fb00b9
:10405c00724990000281fb004811dd000281710061
:10406c00820078004e099000de099000820f50000b
:10407c00838f580008003a007e089000400890009a
:10408c0060689000e34f50000300320020002000d5
:10409c0030079800170037005e019000ee01900089
:1040ac00420f9800530f98007e0890004008900033
:1040bc00f800470012c0b3001c000700f70f5000b7
:1040cc0003003a0020002000300798000900370058
:1040dc001000200030079800060037000e489000b2
:1040ec009e40780080cf500002003a001000200063
:1040fc00300798003e0090000000e000a3ff320063
:10410c000e1090009e019000030878003e00900075
:10411c00e10f500002003a000000eb0001003700f4
:10412c00f00020000080fa00000006000a00fa00ef
:10413c002007980031079800024f98003e0090002d
:10414c001000be000001be002e0090003a000700d7
:10415c00008fbe001e00be00e00f5000e08f580024
:10416c0002003a0070012000310037002e00900050
:10417c0060689000e14f500007003a008040eb006f
:10418c0084ff2000050020001e01be002e009000c0
:10419c008d070700150037002e0090006068900016
:1041ac00e24f500007003a008040eb0084ff2f00e4
:1041bc00050020001e01be002e00900082070700a3
:1041cc000a0037002e00900060689000e34f50000a
:1041dc0006003a008040eb0084ff2f00f5ff200022
:1041ec001e01be002e009000770707003e009000d5
:1041fc001001be008040eb001e02be002e0090009d
:10420c00710707003e0090003e1878002e107800d1
:10421c000e4890000004e000040032001e01be00b5
:10422c002e00900084000700010037000000eb0016
:10423c000080fa00000006001600fa00000f98003b
:10424c00120f9800230f98006000b80060079800c8
:10425c00710798000e089000606890000080fb00c9
:10426c00e10f50000b003200e30f500012003a0037
:10427c0070ff2f00f1ff20002007980031079800f5
:10428c00f0ff2f00f1ff2000400798005107980025
:10429c001200370070ff200001002000200798005a
:1042ac0031079800f0ff2f00010020004007980014
:1042bc00510798000900370070ff2f000100200003
:1042cc002007980031079800f0ff2f000100200014
:1042dc004007980051079800000000001e0990004c
:1042ec00ae0990001000200001002000800f51004a
:1042fc00818f590004003e002000200001002000a6
:10430c00100f9800210f98001e099000ae09900024
:10431c00028fbe003f0037001e01be000e08900049
:10432c007603070060079800710798006e019000f3
:10433c00fe0190004e009000de009000800f5100b6
:10434c00818f590003003a006000b800008fbe0056
:10435c00360037006e009000fe009000e00f500019
:10436c00e08f5800300032001200200003002000c3
:10437c001e0f41005e9749006e019000fe019000f7
:10438c002e009000be009000800f5100818f5900cc
:10439c00140032000e099000c25190008381fb0082
:1043ac00525290000482fb004822dd00848171008f
:1043bc0003007800e25190008381fb007251900061
:1043cc000281fb004811dd0002817100820078003f
:1043dc0062004000e0804800be0f5000ae8f5800d5
:1043ec0003003e002000200001002000008fbe00d2
:1043fc001e089000ae0890001e01be00800f5100f8
:10440c00818f590003003a006000b800008fbe0095
:10441c00060037001e00be00e00f5000e08f580071
:10442c00bdff3a0001003700000000001e00be0076
:10443c000080fa00000006000e00fa004007980009
:10444c0052079800630798000000eb00000f7800fb
:10445c005e019000ee0190004e009000b702070044
:10446c0010079800210798008000eb004e00900088
:10447c00b80107000004a2000004e00005003200af
:10448c004e00900091c0b300017098009000200085
:10449c006f0037004e019000825990008381fb0021
:1044ac00125a90000482fb004822dd0084817100c6
:1044bc0003007800a25990008381fb0032599000d0
:1044cc000281fb004811dd0002817100820078003e
:1044dc00800078004e009000006190000281fb008b
:1044ec00106090000080fb004800dd0000007100af
:1044fc00010178008000eb0078f007000040eb0031
:10450c0060479800290037004e009000e060900052
:10451c008180fb00706090000080fb004800dd0093
:10452c0000807000500390004e009000806090005e
:10453c008180fb00106090000080fb004800dd00d3
:10454c0000807000800278001e019000ae01900087
:10455c001e009000ae00900061004000e08048001a
:10456c0010079800210798004e009000806890007a
:10457c008180fb00106890000080fb004800dd008b
:10458c00008070000042eb008500780006000100fe
:10459c000004e00002003a0090002000000f7800b8
:1045ac006e4090000040e800604798004e0090007c
:1045bc00d06890006e40900080cf50000300360011
:1045cc001e0078000000e000cfff32004e0090008b
:1045dc00c06090008180fb00506090000080fb0068
:1045ec004800dd0000807000000278004e00900052
:1045fc00506890000080fb008000eb001e019000d2
:10460c00ae0190000000510081805900008abe006c
:10461c004e009000c06090008180fb0050609000c4
:10462c000080fb004800dd000080700080007800f6
:10463c00410090000000a100c00098001e0078000e
:10464c00804078004e009000017098001e007800a9
:10465c000080fa00000006001a00fa0070079800ab
:10466c00010f9800120f9800230f9800340f980038
:10467c007e009000a0009000310798003e01900051
:10468c00825990008381fb00125a90000482fb0037
:10469c004822dd008481710003007800a25990004b
:1046ac008381fb00325990000281fb004811dd0030
:1046bc0002817100820078004b09dd004500de00ac
:1046cc0000007100c508de00004f98000e489000f5
:1046dc000080fb00be0890008001780011000900ea
:1046ec008380d800000f78003e0090006068900036
:1046fc00e34f5000270032001e0890001000be004f
:10470c00e00f5000e08f580022003a003e0090006d
:10471c00a06890008180fb00306890000080fb0056
:10472c004800dd0000807000800078003e0890009a
:10473c00808f500005003e000e089000f100200014
:10474c00010878000000eb00ce0037007e009000de
:10475c001000be007e019000220290000001be00fd
:10476c0004007800f5010700100798002107980055
:10477c001e0078008000eb001e019000ae0190003e
:10478c000200400083804800100798002107980021
:10479c00610037003e009000506890000080fb00e4
:1047ac009e00780000017800110009008280d8007a
:1047bc00500798002e089000900078005e00900042
:1047cc00808f5000070036002e0890008000eb0010
:1047dc00010878007e0090001000be001e099000b9
:1047ec000089be003e009000506890008080fb0065
:1047fc002e089000100078000088b90000007800a6
:10480c001e0f1000300037001e0890001000be0074
:10481c000001be003e009000380207001e09900007
:10482c000089be003e009000606890000080fb0094
:10483c00e30f50000c003a001e0890001001be005f
:10484c0080ff2f00f1ff2000800f5100818f590055
:10485c0011003a000e089000f100200001087800c9
:10486c000000eb00870037001e0890001001be000e
:10487c0080ff2f0001002000800f5100818f590014
:10488c0007003a000e089000f100200001087800a3
:10489c000000eb007b003700000000000100370037
:1048ac00000000002e089000100078008000e80046
:1048bc002e089000010878003e009000506890008f
:1048cc000080fb001e0f10002e0890009000780056
:1048dc005e009000808f5000cbff39001e089000c6
:1048ec001000be000001be003e00900093010700c6
:1048fc0010079800210798001e0078008000eb003c
:10490c001e019000ae019000020040008380480020
:10491c0010079800210798003e009000c06090009e
:10492c008180fb00506090000080fb004800dd009f
:10493c00008070001001be001e009000ae009000c0
:10494c00800f5100818f5900370032008000eb003e
:10495c003e0090007f0007000004a2000004e0006d
:10496c00050032000e08900091002000010878002c
:10497c000000eb00430037003e009000e060900028
:10498c008180fb00706090000080fb004800dd001f
:10499c0000807000400290003e009000806090000b
:1049ac008180fb00106090000080fb004800dd005f
:1049bc0000807000800078003e009000006990003c
:1049cc000281fb00106890000080fb004800dd00b5
:1049dc00000071001e019000ae0190000400010067
:1049ec000004a2000004e000050032000e08900054
:1049fc0081002000010878000000eb002100370046
:104a0c003e009000c06090008180fb0050609000e0
:104a1c000080fb004800dd00008070001e0190004b
:104a2c00ae0190000288be003e00900080609000b5
:104a3c008180fb00106090000080fb004800dd00ce
:104a4c0000807000400f98000e4890000080fb0022
:104a5c003e09900080017800110009000381d80004
:104a6c008000fd004500dd00ce0890000080400075
:104a7c00600798000e0890008000eb000108780099
:104a8c006e0090000080fa00000006000200fa00a0
:104a9c00000f78008000eb001e0078002d0007004e
:104aac000004a2000004e00002003200900020008c
:104abc00260037001e007800e06090008180fb002b
:104acc00706090000080fb004800dd0000807000ea
:104adc00400290001e007800806090008180fb00f6
:104aec00106090000080fb004800dd00008070002a
:104afc00800078001e007800406190000281fb006d
:104b0c00506090000080fb004800dd000000710048
:104b1c001001be001e007800806a90008582fb00a8
:104b2c00106890000080fb004800dd0000807200df
:104b3c00040001000004a2000004e00002003200a6
:104b4c0080002000010037000000eb000080fa001c
:104b5c00000006000a00fa00300798004107980090
:104b6c004e0090000000e00003003200e10f500006
:104b7c003d0032009a0037003e009000c06090006b
:104b8c008180fb00506090000080fb004800dd003d
:104b9c000080700040009000610060000000e000a8
:104bac008c0032003e009000e06090008180fb00a1
:104bbc00706090000080fb004800dd0000807000f9
:104bcc00d00290003e009000806090008180fb003d
:104bdc00106090000080fb004800dd000080700039
:104bec00800078003e009000406190000281fb0044
:104bfc00506090000080fb004800dd000000710058
:104c0c001001be003e009000006a90000482fb0080
:104c1c00106890000080fb004800dd00000072006e
:104c2c000042eb00050001000004e00002003a0025
:104c3c000040eb006b0037003e009000c06090001d
:104c4c008180fb00506090000080fb004800dd007c
:104c5c000080700080007800410090000000a100ee
:104c6c00c00098005e0037003e009000c0609000cd
:104c7c008180fb00506090000080fb004800dd004c
:104c8c000080700040009000620060000000e000b6
:104c9c00520032003e009000c06090008180fb000a
:104cac00506090000080fb004800dd000080700028
:104cbc0020019000b0019000028fbe000040eb007c
:104ccc0040479800320037003e009000e0609000b2
:104cdc008180fb00706090000080fb004800dd00cc
:104cec0000807000d00290003e009000a060900008
:104cfc008180fb00306090000080fb004800dd00ec
:104d0c0000807000800078003e00900000699000e8
:104d1c000281fb00106890000080fb004800dd0061
:104d2c00000071000042eb001e01be0005000100f6
:104d3c000004e00002003a000040eb0029003700bc
:104d4c004e4090000040e800404798003e01900023
:104d5c00c25990008381fb00525a90000482fb00e0
:104d6c004822dd008481710003007800e259900034
:104d7c008381fb00725990000281fb004811dd0019
:104d8c0002817100820078001e0f40005e9748007f
:104d9c003e009000c06890004e40900080cf5000c4
:104dac00c9ff3e003e009000c06090008180fb0077
:104dbc00506090000080fb004800dd000080700017
:104dcc0080007800410090000010a100c000980005
:104ddc000300370000000000010037000000000055
:104dec0010c0b3000080fa00000006000800fa00b2
:104dfc001007980021079800624798006e409000b9
:104e0c000080fb00640060000000e0004000320005
:104e1c000040eb00004f7800170037001e80fb00ad
:104e2c009e00900000804000904078001147980050
:104e3c009e409000a0c2b30080cf50001200320000
:104e4c009e409000f0c3b30080cf500009003200a8
:104e5c001e80fb00ae009000008040009040780067
:104e6c001e40900080cf5000020032000040eb004a
:104e7c00300037001e4fe8001e407800e74f50000e
:104e8c00e6ff3600010037000000000080c0b300d0
:104e9c00004f7800170037001e80fb009e0090002a
:104eac000080400090407800114798009e40900090
:104ebc00a0c2b30080cf5000120032009e40900080
:104ecc00f0c3b30080cf5000090032001e80fb00fd
:104edc00ae00900000804000904078001e40900092
:104eec0080cf5000020032000040eb001100370070
:104efc001e4fe8001e407800ea4f5000e6ff3600d7
:104f0c00010037000000000010c0b300090037009a
:104f1c00b2002000ae0090001e009000cfed070004
:104f2c0000f0a7000000ea000000e9004f00de00de
:104f3c00004078000080fa00000006000a00fa0029
:104f4c002007980032079800430798002e00900025
:104f5c00606890000080fb00e30f500022003a00d4
:104f6c003e009000ce00900062015000e08158009d
:104f7c002e009000506890000080fb008000eb0039
:104f8c00009ab90004027800028bb90086027800fe
:104f9c00050242000010b8000102420084007800b3
:104fac002e029000845290008582fb0014539000d6
:104fbc000683fb004833dd00868272000501780011
:104fcc00a45290008582fb00345290000482fb00b6
:104fdc004822dd000482720084017800021f400028
:104fec0003974800420037003e009000ce0090002e
:104ffc00e00f5000e08f5800070032003e01900097
:10500c00ce0190001000200001002000800f510004
:10501c00818f590014003a002e01900082499000b3
:10502c008381fb00124a90000482fb004822dd00c1
:10503c008481710003007800a24990008381fb00f9
:10504c00324990000281fb004811dd0002817100a1
:10505c00820078003e019000ce019000021f4000bb
:10506c0003974800220037003e009000ce009000cd
:10507c0062015000e08158002e00900050689000b2
:10508c000080fb008000eb00009ab900040278005d
:10509c00028bb90086027800050242000010b800ad
:1050ac0001024200840078002e029000845290008d
:1050bc008582fb00145390000683fb004833dd000f
:1050cc008682720005017800a45290008582fb0054
:1050dc00345290000482fb004822dd0004827200ee
:1050ec0084017800021f4000039748000000000074
:1050fc001e00be000080fa00000006002000fa002e
:10510c00889fbe00500f9800620f9800730f980094
:10511c006000b80030079800410798005e089000c6
:10512c00606890000080fb00e10f50001500320019
:10513c00e30f500035003a006e099000fe09900014
:10514c004218dd00ce10de00810070004210dd0040
:10515c0010079800210798000040eb00004f7800e2
:10516c00f0ff2f00f1ff2000500798006107980016
:10517c0080ff2f00f1ff200070079800010f9800ae
:10518c00330037007e0890006300b90000017800fe
:10519c006e0890006000b90000007800000141002a
:1051ac00ee089000300020000008b800010141001a
:1051bc0082007800100798002107980010079800cb
:1051cc00210798001e00900000407800614f60009d
:1051dc001e009000ae0090008100d1000080d30032
:1051ec001007980021079800f0ff2f000100200005
:1051fc00500798006107980080ff200001002000f4
:10520c0070079800010f9800110037006e0890008d
:10521c00fe089000000040008180480010079800b4
:10522c00210798000040eb00004f7800f0ff2f00a2
:10523c0001002000500798006107980080ff2f00a4
:10524c000100200070079800010f9800000000007a
:10525c005e089000c04090008180fb00504190009f
:10526c000281fb004811dd0082807000010478008f
:10527c00e04090008180fb00704090000080fb00bb
:10528c004800dd0000807000800478005e0990000a
:10529c00825990008381fb00125a90000482fb001b
:1052ac004822dd008481710003007800a25990002f
:1052bc008381fb00325990000281fb004811dd0014
:1052cc0002817100820078000001be001e00900077
:1052dc00ae009000d1ec0700080040008980480027
:1052ec00100f9800210f98005e09900082599000d1
:1052fc008381fb00125a90000482fb004822dd00df
:10530c008481710003007800a25990008381fb0016
:10531c00325990000281fb004811dd0002817100be
:10532c008200780061005000e08058001e0190005f
:10533c00ae01900002027800030178008001780031
:10534c000100780003026200000061008000eb00a5
:10535c00c000dd00000020000001be006120b8008c
:10536c0000017100818171001207980023079800d9
:10537c005e089000c06090008180fb00506090003f
:10538c000080fb004800dd000080700020019000d0
